:020000022000DC
:1060000000000120F59902001D9A02001F9A02006B
:10601000219A0200239A0200259A02000000000043
:10602000000000000000000000000000279A0200AD
:10603000299A0200000000002B9A02002D9A02000B
:106040007DB702002F9A0200EDB702002F9A0200DE
:106050002F9A02002F9A02002F9A02008DB8020098
:106060002F9A02002F9A02002F9A02002F9A020004
:106070002F9A02002F9A02002F9A02002F9A0200F4
:106080002F9A0200D52503002F9A02002F9A0200B2
:10609000912603002F9A02006D2303002F9A02001D
:1060A0002F9A02002F9A02002F9A02002F9A0200C4
:1060B0002F9A02002F9A020000000000000000004A
:1060C0002F9A02002F9A02002F9A0200E1B70200D5
:1060D0002F9A02002F9A02002F9A0200000000005F
:1060E00000000000000000000000000000000000B0
:1060F00000000000000000000000000000000000A0
:10610000000000000000000000000000000000008F
:10611000000000000000000000000000000000007F
:10612000000000000000000000000000000000006F
:10613000000000000000000000000000000000005F
:10614000000000000000000000000000000000004F
:10615000000000000000000000000000000000003F
:10616000000000000000000000000000000000002F
:10617000000000000000000000000000000000001F
:10618000000000000000000000000000000000000F
:1061900000000000000000000000000000000000FF
:1061A00000000000000000000000000000000000EF
:1061B00000000000000000000000000000000000DF
:1061C00000000000000000000000000000000000CF
:1061D00000000000000000000000000000000000BF
:1061E00000000000000000000000000000000000AF
:1061F000000000000000000000000000000000009F
:1062000010B5054C237833B9044B13B10448AFF3F0
:1062100000800123237010BDF4280020000000003E
:106220009C35030008B5034B1BB103490348AFF38A
:10623000008008BD00000000F82800209C35030005
:10624000154B002B08BF134B9D46A3F5803A002148
:106250008B460F461348144A121A0CF06BFC0F4B76
:10626000002B00D098470E4B002B00D09847002001
:10627000002104000D000D48002802D00C48AFF3A7
:1062800000800CF019FC2000290006F089F80CF0C1
:10629000FFFB00BF0000080000000120000000001C
:1062A00000000000F42800204C3E00200000000008
:1062B000000000004FF0A0430322102110B5C3F8E6
:1062C0001027C3F80C152021C3F81427C3F80C15A8
:1062D0004021C3F818270A48C3F80C15C3F81C2737
:1062E0008022C3F80C2504240C2212F1FF3200D2C4
:1062F00010BD115C01F5E07143F82140F5E700BFE6
:10630000F03303002DE9F8432B4DDFF8B8C0DFF878
:10631000B8E0DFF8A880002201274FF0A0412C460A
:1063200012F80C3007FA03F3C1F80835302300BF28
:10633000013BFCD1184610F80E90D1F8106526FAF2
:1063400009F6F60744BF07FA00F6334300F10100EF
:1063500048BF9BB20C28EED135F8120098421EBF00
:1063600025F81230052388F800308023C1F80C3559
:106370004023C1F80C3501322023C1F80C35042A22
:106380004FF01003C1F80C35CAD10C4A137863B131
:10639000013BDBB213705BB9094B22881A8062881B
:1063A0005A80A2889A80E288DA800120BDE8F883CA
:1063B00000F012F9F9E700BF18290020002500209D
:1063C00010290020FC330300F0330300014B33F8A5
:1063D000100070471029002010B50B4C00214FF021
:1063E000A0430222085D013100F5E0700C2943F85A
:1063F0002020F7D1C3F81C27C3F81827C3F81427A7
:10640000C3F8102710BD00BFF033030010B51148CA
:10641000114C00224FF0A043115D013201F5E071F3
:106420000C2A43F82100F7D103228021C3F81C274E
:10643000C3F808154021C3F81827C3F80815202110
:10644000C3F81427C3F80815C3F810271022C3F89F
:10645000082510BD04000200F033030013B50949FC
:10646000684604F0E7FF019C14B9204602B010BD55
:106470002468E36898470028F7D1684604F0E3FFF2
:10648000F1E700BF0034030010B5FFF7E7FF18B1D4
:106490000368BDE81040184710BD70B504460D46AE
:1064A0001646FFF7DBFF30B14368324629462046E7
:1064B000BDE87040184770BD064B1B78024633B1EB
:1064C000054B1B781BB11C218020FFF7E6BF08217C
:1064D0000020FAE72029002072250020024605212D
:1064E0000120FFF7DABF07B502AA022122F8020D48
:1064F0000846FFF7D2FF03B05DF804FB07B502AA18
:10650000022122F8020D0320FFF7C7FF03B05DF858
:1065100004FB10B5FFF7A2FF18B18368BDE8104077
:106520001847012010BD000010B504460A480CF0C1
:106530008DFA08B103F0D0FB002C40F233314FF05C
:10654000000208BF522104480CF03CFA18B1BDE823
:10655000104003F0C1BB10BD4429002010B5064C0B
:1065600000F0D8FE2268904202D80020FFF7DCFF3E
:106570000023236010BD00BF8429002010B50F4BFD
:106580000F4C1B7813B123680133236000F0C2FE67
:106590002368984208D10120FFF7C6FF00210A2096
:1065A000BDE8104000F05ABE00F0C2FE23689842D9
:1065B000F4D1012005F0DCFEF0E700BF1825002033
:1065C0008429002001F01CBC82B002AB03E9030067
:1065D00002B0FFF7C3BF000008B50022082104483D
:1065E0000CF0F0F918B1BDE8084003F075BB08BD28
:1065F0002429002008B50022522109480CF0E2F9B4
:1066000008B103F069FB00224FF4005105480CF07B
:10661000D9F918B1BDE8084003F05EBB08BD00BF62
:106620004429002064290020044B1A78824203D0B8
:10663000187008B9FFF792BF704700BF18250020F7
:1066400008B501F0D3FB00F0F7F801F0B9F801F05C
:10665000CFFB0F4801F08CFB0E4A0F4801210CF0D4
:106660009FF908B103F038FB0A4A0C4800210CF0EE
:1066700097F908B103F030FB094A0A4801210CF0F0
:106680008FF908B103F028FBBDE8084001F01EBAFD
:1066900004250020C5650200103403000C340300FB
:1066A0007D65020014340300704708B50CF0EAF968
:1066B000C00808BD08B5FFF7F8FF4FF6FF73B0FB41
:1066C000F3F3184480B208BD10B50446FFF7F2FF9B
:1066D000001B80B210BD3CDF704708B5B12100201F
:1066E000FFF7F9FF0220BDE8084004F051BE10B5E5
:1066F000044600F089F821460B20BDE8104000F068
:1067000007BE00002DE9F843837880460F46144603
:1067100013B179B1012924D02A4E2B4DAD1BAD0800
:106720004FF000095FFA89F39D4209F1010941D850
:10673000BDE8F883012A0BD006D3022A0ED00F2A17
:10674000EAD1FFF7CAFFE7E7022005F011FEE3E711
:106750001E4A137883F001031370DDE706F000FC96
:10676000DAE70A2AD8D801A353F822F09967020081
:106770001967020019670200196702001967020011
:106780001967020019670200AF6702009F670200E5
:10679000A7670200AB67020001F04AF8BCE70020DF
:1067A00006F084F8B8E70120FAE70220F8E706F0DF
:1067B00091F8B1E756F823302246394640469847CB
:1067C000B0E700BFEC280020EC2800207225002054
:1067D000092816D1022902D0032907D070474FF0AB
:1067E000A0434FF08052C3F80C257047054B1B782F
:1067F00013F0020F4FF080524FF0A043F3D0C3F8D4
:106800000825704788290020074B18704FF0A043D7
:1068100010F0020F4FF080520CBFC3F80C25C3F8E4
:10682000082501F077B900BF882900204FF0A04368
:106830000222C3F8702770474FF0A0430322C3F829
:106840007027704770B51C4C2278052A23D80D4656
:106850006B1ADBB2984210D915F8013BA3F11E0662
:10686000092E19D8511C21701D3B0A2093FBF0F111
:1068700000FB1133114930338B540121022000F009
:1068800047FD2378062B06D10C480023837106F0C0
:1068900077F8FF23237070BDA3F15906092E03D8A2
:1068A000511C2170583BE0E72A2BD1D1002ACFD0D0
:1068B000013A2270E1E700BF192500202C3D00209D
:1068C000014B00221A7070471925002041DF7047E4
:1068D00028DF704706490022535C33B90132B2F514
:1068E000C07FF9D1034A137070470123FAE700BF54
:1068F000002A00204025002082B02F28ADF8041087
:106900001ED89DF804200B2A1AD89DF80530032BB9
:1069100016D80C49097851B103EB43039B00302191
:1069200011FB0030084B1A44105C02B07047302154
:1069300048430C2101FB030304480344985CF4E73B
:106940000020F2E740250020002A002060330300E9
:10695000094B1B7853B100F14003084A5B00DBB2DE
:10696000D118D05C497800EB01207047044BC03847
:1069700033F81000704700BF40250020A8290020F0
:106980005C33030030B5807858B10D4849B100231D
:10699000C25C5C1CA4B22AB9013911F0FF0101D11B
:1069A000204430BD551E012D02D9743A012A05D864
:1069B00002339BB2FF2BEBD90020F2E72346F9E725
:1069C0008C2B002010B5094A094910780B6818B9BA
:1069D000084C24689C4207D00133052BA8BF002334
:1069E0000B6008B10023137010BD00BFF829002010
:1069F000FC290020F42900207FB501AC84E80700C1
:106A00000F4E104A33680C2505FB032594E8070058
:106A1000013385E80700052293FBF2F202EB8202C4
:106A20009B1A094A33601078084910B10B6004B012
:106A300070BD09688B4204BF01231370F7E700BFE4
:106A4000F4290020343D0020F8290020FC290020F2
:106A500030B50C4685B001460546204604F096F850
:106A600007280ED104F0E4F8CDE9015400238DF895
:106A70000C3004AB13E9070005B0BDE83040FFF768
:106A8000BBBF05B030BD30B5002389B004460D460C
:106A9000CDE90133CDE903330A4601AB41880088D3
:106AA00004F0EAF8D0B903A9284604F025F8039BBE
:106AB0005A88A3689A4209D19200049960680CF040
:106AC0002EF8284604F03CF809B030BD284604F002
:106AD00037F829462046FFF7BBFFF5E72146284651
:106AE00004F050F807280BD104F0A2F8CDE90545D1
:106AF00001238DF81C3008AB13E90700FFF77CFF7A
:106B0000A2686068920000210CF014F8DCE7000035
:106B1000064B1B783BB9064B1868064B1B68C31A1B
:106B20005842584170470020704700BFF8290020A4
:106B3000F4290020FC29002008B5FFF7E9FF30B94F
:106B4000044B1868044B0C2202FB003008BD0020E7
:106B5000FCE700BFFC290020343D002010B50446AE
:106B6000E00705D50D490E48FFF78DFFFFF7B2FE90
:106B7000A10703D50B490C48FFF785FF620703D532
:106B80000A490B48FFF77FFF230705D509490A4843
:106B9000BDE81040FFF777BF10BD00BF802B00207D
:106BA00034250020E8290020282500208C2C0020F6
:106BB000442500209C2900201C25002010B50446F7
:106BC000E00702D50A4803F0E9FFA10702D509480A
:106BD00003F0E4FF620702D5074803F0DFFF230755
:106BE00004D50648BDE8104003F0D8BF10BD00BF73
:106BF000802B0020E82900208C2C00209C290020DC
:106C0000F8B5154803F05CFE03F070FE08B103F020
:106C100063F8124A137873B11148124A124F0023D5
:106C2000121AD20819461E469A4207D1FF20BDE823
:106C3000F840FFF793BFFFF749FEEBE710F833404A
:106C40000C44102C00EBC305DBBFC91969606E60F2
:106C5000E1B20133E8E700BFC16D0200982C0020CB
:106C6000B4280020D42800208C29002010B5044628
:106C7000E00703D50B490C48FFF7EAFEA10703D54F
:106C80000A490B48FFF7E4FE620703D509490A48A1
:106C9000FFF7DEFE230703D508490948FFF7D8FEB2
:106CA000012010BD802B002034250020E829002081
:106CB000282500208C2C0020442500209C29002021
:106CC0001C25002038B51446032819D8DFE800F049
:106CD000141A02110D484FF480726518AA42BCBF05
:106CE000521A94B20144224618460BF018FF20466F
:106CF00038BD07481022F0E706484FF4C072ECE7B1
:106D00000024F4E704484022E7E700BF8C2B002072
:106D10008C290020002A0020A829002070B50546F3
:106D20000E461446032818D8DFE800F01C19021498
:106D30000E484FF48072A1198A4201DA921B94B274
:106D40002246194630440BF0EAFE0DB9FFF7C2FDAA
:106D5000204670BD06481022EDE70024F8E70548FC
:106D60004022E8E704484FF4C072E4E78C2B00208F
:106D70008C290020A8290020002A002008B540F610
:106D8000F8731B685A1C08BF0C4B4FF0805208BFA9
:106D90001B68116950691269B3F1FF3F08BF00FB1E
:106DA00001F3B3FBF2F3581EFFF792FD981EFFF7B5
:106DB0008FFDD81EBDE80840FFF78ABD14100010F3
:106DC00008B5037813B1052B0CD008BD43681BB977
:106DD000164B01221A70F8E70B2BF6D1BDE80840DC
:106DE000FFF7CCBF4368002BEFD1FFF791FE0028DF
:106DF000EBD1FFF7A1FE037A23B1012B0ED0FFF7F1
:106E0000E1FDF2E7D0E9001003F0C0FE0028F6D063
:106E1000072808D1BDE8084003F00ABFD0E90010F8
:106E200003F0B0FEF2E70828DFD1CEE7982C00206F
:106E300010B590B00023024604468DF801000DF114
:106E400002008DF800300BF06AFEA01C6946C0B24B
:106E500000F092FC10B010BD00B58FB06B46382228
:106E6000FFF730FF6946C0B2FFF7E2FF0FB05DF8F1
:106E700004FB07B502A901F8010D012000F07CFC1C
:106E800003B05DF804FB10B51C4613462246FFF71D
:106E900045FFA04234BF04200020BDE81040FFF7AA
:106EA000E8BF0000F0B5203887B00C4615461F2813
:106EB00000F21081DFE810F0200039004D005B0087
:106EC00067006C000E0183000E010E010E010E0121
:106ED0000E010E010E010E010E018B00A800BB0079
:106EE000C400CD000E01ED000E010E010E010E01D9
:106EF0000E01F700FE00050119B10220FFF7B9FFEE
:106F00003FE0754B01AA03F1100615461868596851
:106F1000144603C40833B3422246F7D11B882380AA
:106F200029461220FFF784FF2BE00329E5D153788F
:106F3000107892788DF801308DF800200099FFF7D5
:106F4000DBFC00238DF804008DF8053001A9022038
:106F5000E8E70129D1D1117801AB0222490020468E
:106F6000FFF7B0FEC0B20228C7D101A9DAE70229B3
:106F7000C3D15378117801EB032189B20020FFF7C8
:106F80006BFF07B0F0BD0129B7D111782046F6E7B5
:106F90000129B2D11578514B514A9B1ADB080020C8
:106FA000C1B28B42A9D902EBC10412F83110A94237
:106FB00000F10100F4D1636859681878B2E702293A
:106FC0009BD15378117801EB032189B2DEE70529C3
:106FD00093D11379D278297802EB03226B7801EBF5
:106FE000410003EB4301890092B201EB0011A87844
:106FF0008DF80420120A8DF80520012301AA01440E
:107000000020FFF740FFBCE703297FF476AF11783B
:107010006B78927803EB02239BB28DF804301B0A45
:107020008DF8053001AA022349000120E9E74B1E33
:107030001178C1EBC101C90089B2DBB20132DFE7CF
:107040004B1E1178C1EBC101C90089B2DBB201321C
:10705000EBE71778214B4A1E21495B1AD2B2DB08B5
:107060000024E0B29842BFF448AF01EBC00611F82B
:107070003000B84204F10104F3D1736819789142E9
:1070800005D1691C58680BF04AFD002036E7042042
:1070900034E74B1E1178C1EBC101C90089B2DBB2E4
:1070A00001320220ADE701297FF427AF1078FFF706
:1070B00055FDEAE701297FF420AF1078FFF7D6FDF0
:1070C000E3E701297FF419AF14782046FFF776FD36
:1070D0002046ECE7012011E718340300EC280020DB
:1070E000D42800203CDF70473DDF70473EDF70470B
:1070F00007B5002001A9FFF7F9FF0198C0F3400090
:1071000003B05DF804FB07B5024601A90020FFF7B4
:10711000EDFF019B72B143F002034FF0FF310020FD
:107120000193FFF7E1FF01990020FFF7DBFF03B0B8
:107130005DF804FB23F00203EFE700002DE9F041C6
:10714000084E094CA41B07468846A4080025A54202
:1071500001DBBDE8F08156F82530414638469847B6
:107160000135F4E7A0280020B028002010B5094A16
:10717000094910780B6818B9084C24689C4207D05C
:107180000133142BA8BF00230B6008B10023137038
:1071900010BD00BFA02C0020A42C00209C2C00209F
:1071A00037B56C4684E803000E4D0F4A2B6894E80F
:1071B000030002EBC30282E803005A1C142192FB75
:1071C000F1F301FB1323094A2B601078084910B131
:1071D0000B6003B030BD09688B4204BF01231370FC
:1071E000F7E700BF9C2C0020743D0020A02C00205D
:1071F000A42C0020064B1B783BB9064B1868064BA5
:107200001B68C31A5842584170470020704700BF9E
:10721000A02C00209C2C0020A42C002008B5FFF7F7
:10722000E9FF28B9034B04481B6800EBC30008BD05
:107230000020FCE7A42C0020743D002010B5FFF7CF
:10724000D9FF00B110BDFFF7E9FF0446FFF78EFF3D
:1072500061682078FFF772FFF1E7000073B504461C
:10726000631E0D46C8B2072B0AD8DFE803F02E399B
:107270000904091E093E431E58425841FFF743FFC7
:107280002946204605F09AFD002C3AD0052C2FD136
:10729000022D2FD18DF80040019502AB13E90300B8
:1072A00002B0BDE87040FFF77BBF0028164E13BF49
:1072B0000123002301200020337000F03FFC3078D0
:1072C00080F00100FFF7B0F9DAE70028D8D10E4BC3
:1072D0001B7813B105F02CFBD2E705F049F8CFE796
:1072E0000028CDD1FFF7ECFACAE7084B1870C7E7C2
:1072F000042CCFD12946204602B0BDE87040FFF7EC
:107300001DBF02B070BD00BF703D002020290020CD
:10731000FFF7A4BF054B5B685A78187800EB022092
:1073200080B2002808BF1E20704700BFB42800208C
:10733000054BDB685A78187800EB022080B20028F1
:1073400008BF4FF496707047B4280020054B5B6966
:107350005A78187800EB022080B2002808BF0A2073
:10736000704700BFB4280020034B1888034B1B88CC
:10737000C31A584258417047922E0020902E002088
:10738000064B5A79022A07D1587810B1987880F0C4
:10739000010000F0010070470020FAE72A2D0020CC
:1073A000014B1878704700BF143E002000B58BB029
:1073B00000231B22CDE9063308931A23CDE90423C9
:1073C0000B4B0C4A09930C4B00934023CDE902234D
:1073D00001930A4A0623694604A804F0A3F808B1F9
:1073E00002F07AFC064B01225A710BB05DF804FBE7
:1073F00000E0D701302D0020EA2C00209574020017
:107400002A2D002010B5022808BF074B044614BFE0
:10741000002119790820FFF77BFF21460720BDE8EE
:107420001040FFF775BF00BF2A2D002008B5FFF7F9
:107430009BFF38B9044A054B11885B5C0B44013350
:10744000DBB2138008BD00BF902E0020902D0020DD
:10745000F8B50E4B0E491B88CD5CEA18FF2A07468B
:1074600010DDDC43E4B22E1BF6B224B10133224618
:1074700019440BF054FB0649324638190BF04FFB08
:107480002846F8BD01332A461944F7E7902E00201C
:10749000902D00202DE9F04F037893B0042B0BD8EA
:1074A000DFE803F003B5B00A03005A4E5A4F0DF15E
:1074B000070004F0A5F810B113B0BDE8F08F3278E2
:1074C0009DF80730BB54002A77D11A0608D57E3BB9
:1074D000DBB2524A022B1370E9D001233370E6E786
:1074E0001F2B04D94E4A03F01F031370DFE70F2B45
:1074F000DDD94C4D03F0010903F0020BC3F3400A40
:1075000003F00401C3F3800203F00808C3F3C004CE
:107510006B79012B02D06B78934209D06A700029F5
:1075200047D0AB78002B14BF03200220FFF76AFF7F
:107530006B79012B02D02B78534509D0BBF1000F9A
:1075400014BF02210121062085F800A0FFF7E0FE0C
:107550006B79012B02D02B79A34209D02C71B8F1A1
:10756000000F28D0FFF70CFFC1B20820FFF7D0FEB4
:107570006B79012B04BF02236B71B9F1000F01D0AD
:10758000FFF754FFFFF7F0FE044678B90DF1080845
:107590004046FFF75DFF8146E3B2994506D918F8EA
:1075A000040004F04BF801340028F5D00123EB70FF
:1075B0007DE70120BAE74046D6E7184C0132217832
:1075C000D2B28A423270FFF472AF4A1E3070D2B229
:1075D000034690420DDB7A1812F8012C9A420DD125
:1075E0000439114A7878C9B2FFF75CFC0023237094
:1075F0005DE73D5C2B44DBB20130EAE70520FFF795
:1076000038FCF3E704F03AF8FFF7D0FE54E703F054
:10761000E7FF51E7E82C0020A82C0020E92C0020EF
:10762000143E00202A2D0020AB2C00202DE9F84F1D
:107630001C4FDFF878B03C8804F1010A0AEB000621
:10764000B6B2054688465FFA86F9BBF800309C4220
:1076500001D2B3421ED99C4203D9FF2E01D94B451A
:1076600018D91148B6F5807F055516D9E443E4B220
:107670002D1BEDB224B12246414650440BF04FFA87
:1076800009482A4608EB04010BF049FAA7F80090D4
:10769000BDE8F88FFFF7CAFED7E72A4641465044B7
:1076A000F2E700BF922E0020902D0020902E0020A7
:1076B00010B50C463D2C90B011461DD804F1400386
:1076C0008DF8010022460DF102008DF800300BF01C
:1076D00026FA0020A31C01461DF8012001310244B6
:1076E0008B42D0B2F8DC10A90B44E01C6946C0B252
:1076F00003F8402CFFF79AFF10B010BD024A002398
:107700001380024A13807047922E0020902E002092
:1077100010B5FFF7F3FF03F0B1FF4FF0A0430422D1
:107720000024C3F86C27084B20465C719C705C7089
:10773000FFF768FE21460620FFF7EAFD21460820F4
:10774000BDE81040FFF7E4BD2A2D0020094B5A790F
:1077500032B1DA780AB9FFF7DBBF0022DA7070477E
:107760004FF0A043D3F810351B0101D5FFF71EBE23
:10777000704700BF2A2D002010B53E2890B0044667
:107780001BD8A0F1800302460DF101008DF80030F6
:107790000BF0C5F90020631C01461DF801200131E2
:1077A00002448B42D0B2F8DC10A90B44A01C6946FD
:1077B000C0B203F8402CFFF739FF10B010BD000035
:1077C00008B50B4A0B4801210BF0EAF808B102F0AA
:1077D00083FA4FF0A0430422C3F86C27D3F8103586
:1077E0001B0103D5BDE80840FFF7E0BD08BD00BFA1
:1077F0004D7702002C34030008B500224FF40061DD
:1078000004480BF0DFF818B1BDE8084002F064BA94
:1078100008BD00BF702D002008B5FFF779FF4FF0BD
:10782000A043024AC3F86C2708BD00BF0400020051
:10783000084A5379022B0BD153784BB1937883F0DC
:107840000103002B14BF032002209370FFF7DABD61
:10785000704700BF2A2D0020014B1878704700BFE9
:10786000383E0020034B18884FF6FF73C01A18BF2C
:107870000120704794250020030670B504460E468B
:1078800015460BD418B9911C1A20FEF7DBFF2A46C7
:1078900031462046BDE8704005F0C0B970BD00001B
:1078A00010B5094A094910780B6818B9084C2468C2
:1078B0009C4207D00133052BA8BF00230B6008B101
:1078C0000023137010BD00BFC02E0020C42E002066
:1078D000BC2E00200C490D4A0B6842F823000133EE
:1078E000052293FBF2F202EB82029B1A084A0B601C
:1078F0001078084908B10B60704709688B4204BFD3
:1079000001231370704700BFBC2E0020183E0020DA
:10791000C02E0020C42E0020064B1B783BB9064B1E
:107920001868064B1B68C31A58425841704700201C
:10793000704700BFC02E0020BC2E0020C42E0020A7
:1079400008B5FFF7E9FF28B9034B04481B6800EBB3
:10795000830008BD0020FCE7C42E0020183E002054
:10796000F8B5494A1378174613B1013B1370F8BDB7
:10797000464A13781646002BF7D1454C23689BB92D
:10798000FFF7CAFF60B1434C2278002AEFD042488B
:107990000BF05CF808B102F09FF900232370E6E7D2
:1079A000FFF7CEFF03682360FEF7B3FD0028DED0AB
:1079B00023681D78742D49D01ED8022D35D015D8D6
:1079C000002D57D0012DD2D158785A1C00F1200338
:1079D000DBB2072B22600CD800F0070005FA00F09C
:1079E000C0B201F073FA01F0A3FA1BE0042DBED37C
:1079F000284600F0A0FA15E0772D33D008D8752D71
:107A00002CD0762DB3D101F03FFA244B187009E049
:107A1000782D2CD0A5F184036F2BA8D805F07F001A
:107A200000F02DFB2368013313E058785A1C00F155
:107A30002003DBB2072B2260F2D8012300F00700FD
:107A400003FA00F0C0B201F049FACCE75A783A7074
:107A500002332360124B1B78337088E7104A597841
:107A60001170F5E70D4B187801F024FABBE701F02F
:107A700027FAB8E7FFF714FF094B256005221A70B3
:107A8000064B1D70E6E700BFB82E0020B92E00207F
:107A9000942E0020C92E0020982E0020C82E0020F1
:107AA0007025002010B5074CFFF714FF227842B96B
:107AB000082105480AF086FF08B102F00DF90123FC
:107AC000237010BDC92E0020982E002008B5054A4D
:107AD000054801210AF064FF18B1BDE8084002F032
:107AE000FBB808BD61790200303403000A280CD1CC
:107AF000064B1B784BB1064A136833B1013B136048
:107B00001BB902210920FFF703BC70477125002033
:107B1000CC2E002010B5074B1B784BB1064C2268C9
:107B20001AB903210920FFF7F3FBFFF70FFC2060D0
:107B300010BD00BF71250020CC2E002010B50B4BCE
:107B40001A6804460AB100221A60094B1C7044B13D
:107B5000FFF7E0FF84F001010920BDE81040FFF7C6
:107B6000D7BB03210920FFF7D3FBF3E7CC2E00207E
:107B700071250020052810B502D00A2809D010BDB3
:107B800011F0FF0FFBD14FF0A043184AC3F85C2758
:107B9000F5E74FF0A043164AD3F81015137811F407
:107BA000000F144602D101331370E8E7023B022BA9
:107BB00004D800230320137004F0DAFB2378053B7C
:107BC000042B03D800232370FEF787FD2378092BAD
:107BD000D5D90023237004F05BFE0F20FEF7EEFFE3
:107BE0000F20BDE81040FEF7B9BF00BF0C00030036
:107BF000D02E0020F0B5054685B010220021684641
:107C00000AF098FF2B7843BB1C4E1D4C6868A41BE0
:107C1000A408A1B203F092FF08B102F05DF80022BF
:107C2000D3B2A34211DA04A901EB430009E0696869
:107C300030F8107C31F813102344394420F8101C1C
:107C4000DBB29C42F3D80132EAE70025A54206DB0D
:107C500004F046F80B4B00221A7005B0F0BD56F840
:107C60002570BB683BB1FA890A2A04D83DF9150092
:107C70009847BB89FB810135E8E700BFB0280020A9
:107C8000B4280020342F0020F8B5234E234C0025C3
:107C9000A41BA4082A46A54223DB002A3AD0204F81
:107CA0003A78D2B91F49204803F0A2FE08B102F089
:107CB00013F80025AC4222DCA4B221461B4803F095
:107CC0003DFF08B102F008F82146194803F036FFDD
:107CD00008B102F001F801233B70BDE8F84003F061
:107CE00081BF56F82510CB890A2B04D84B6803B105
:107CF0009847012201E00A3BCB810135CBE756F8DA
:107D00002530E8B2196803F0BBFE08B101F0E4FFCA
:107D10000135CFE7F8BD00BFB0280020B42800200F
:107D2000342F0020F57B020038340300F42E0020AD
:107D3000142F002008B50022522104480AF042FE08
:107D400018B1BDE8084001F0C7BF08BDD42E00201F
:107D500008B5054A054801210AF022FE18B1BDE820
:107D6000084001F0B9BF08BD897C0200343403002B
:107D7000014B1860704700BF382F0020024B186875
:107D800008B1036818477047382F0020024B1B6862
:107D90000BB15B6818477047382F0020024B1B68F7
:107DA0000BB19B6818477047382F0020054B198886
:107DB000814205D01880044B1B680BB1DB68184763
:107DC000704700BF3E2F0020382F0020054B198838
:107DD000814205D01880044B1B680BB11B69184702
:107DE000704700BF3C2F0020382F002000F07CB8E7
:107DF00008B5FEF759FCBDE80840FEF75BBA000085
:107E00002DE9F74FFEF77EFA324F0026E8465FFA7B
:107E100086FA5046FEF7DAFA37F8029F8145834624
:107E20002ED02D4B1A78930701D500F05EF800256F
:107E3000012489EA0B0914EA090F1BD01BEA040F7D
:107E400014BF012200228DF802208DF800508DF819
:107E500001A0FEF72FFC40F00100ADF8040098E807
:107E6000030000F043F898E80300FEF7ADFB3A8802
:107E700062403A800135EDB264000C2DA4B2DAD133
:107E80000136042EC3D14FF6FF73ADF80030002346
:107E90008DF80230FEF70EFC40F0010002ABADF8A9
:107EA000040013E903000D4C00F020F801F066F81F
:107EB00001F0FEFAFFF762FF2378834207D0FFF755
:107EC0005DFF207003B0BDE8F04F01F05AB803B079
:107ED000BDE8F08F402F0020EE2F0020402F002023
:107EE00008B5FEF704FC08BD7047704710B586B0B2
:107EF0006C4684E80300BDF80430BDF80020ADF8FE
:107F00000C2043B192B24FF6FF739A4203D094E82B
:107F10000300FEF759FB0023ADF8163094E8030088
:107F200006AB0490ADF8141013E9030006B0BDE8E9
:107F3000104000F061BD10B50446002800F09E809E
:107F4000031FDBB2A02B0BD801F086FB002840F00A
:107F50009580204600F07CFEBDE8104000F0E8BFB0
:107F600000F12003DBB2072B07D800F00704012043
:107F7000A040C0B200F08EFFEEE700F15B03DBB281
:107F8000022B0BD8A52807D0A6280CBF822083205F
:107F9000BDE81040FFF70ABF8120F9E700F1580360
:107FA000DBB2162B6AD8A82831D0A92831D0AA284C
:107FB00031D0AB2831D0AC2831D0AD2831D0AE286B
:107FC00031D0AF2831D0B12831D0B02831D0B2284B
:107FD00031D0B32832D0B42833D0B52834D0B62825
:107FE00035D0B72836D0B82837D0B92838D0BA28F5
:107FF00039D0BB283AD0BC283BD0BD283CD0BE28C5
:108000000CBF70200020BDE81040FFF7DFBEE2206B
:10801000F9E7E920F7E7EA20F5E7B520F3E7B6202E
:10802000F1E7B320EFE7B420EDE7B720EBE7CC2092
:10803000E9E7CD20E7E740F28310E4E74FF4C570AD
:10804000E1E74FF4C970DEE74FF4CA70DBE740F2B6
:108050002120D8E740F22320D5E74FF40970D2E77A
:1080600040F22520CFE740F22620CCE740F227203F
:10807000C9E740F22A20C6E76F20C4E710BD08B563
:10808000034648B3021FD2B2A02A05D800F086FEEC
:10809000BDE8084000F04CBF00F12002D2B2072A30
:1080A00007D800F0070301209840C0B200F0FAFEA4
:1080B000EEE700F15B02D2B2022A04D80020BDE84C
:1080C0000840FFF773BE5833DBB2162B04D80020EC
:1080D000BDE80840FFF77ABE08BD08B528B100F03A
:1080E000D9FEBDE8084000F023BF08BD08B528B19F
:1080F00000F0D8FEBDE8084000F01ABF08BD08B582
:1081000000F0F4FE00F0B4FE00F012FF01F05EFAA1
:1081100001F0C0F90020FFF749FE0020BDE808404B
:10812000FFF754BE08B500F0CBFEBDE80840FFF7EE
:10813000E6BF00002DE9FF41804600F024FF002843
:1081400040F0888098F80670B8F80420D8F800004D
:10815000029002AB98F80250ADF804003F09002AE3
:1081600078D080B24FF6FF71884273D0ADF80C2002
:108170008DF80A5093E8030000F012FD044600F069
:108180000DFD00F0ABFCC4F303330F2B62D8DFE826
:1081900013F010001000320032007B0094006100E8
:1081A0006100A000610004010401630161006E012F
:1081B0008501C4F30723C4F3032613F0F00F18BF9F
:1081C0003601E4B25DB126B1304600F07FFE00F02A
:1081D000AFFE204604B0BDE8F041FFF7ACBE20463C
:1081E000FFF74DFFB6B3304600F078FE04B0BDE8AF
:1081F000F04100F09DBEC4F3072303F0F003C4F385
:108200000326202BE0B218BF360168B1012824D024
:108210009DB33FB198F80630D907DBD56FF307134C
:1082200088F80630304602E06DB1304627B904B018
:10823000BDE8F041FFF751BF012FF8D104B0BDE810
:10824000F04100F059BE1FB900F05CFE30460CE072
:10825000012FF9D104B0BDE8F0815DB1052FF9D847
:1082600000F012FE30423046E1D004B0BDE8F041EB
:10827000FFF73CBF042FEDD8E8E7002FE6D004B0AD
:10828000BDE8F041FFF7FBBEC4F381234BB1012BE6
:10829000E0D185B1C4F3090004B0BDE8F041FFF7B7
:1082A00095BD35B1C4F3090004B0BDE8F041FFF756
:1082B0007DBD2846F8E72846EEE7E0B235B100F08C
:1082C000F7FF04B0BDE8F04101F0E4B801F05AF85E
:1082D000F7E714F4407F2CD1002DBBD1C4F342103A
:1082E000E2064FEA800304F00F0000FA03F644BFF1
:1082F0000F209840C4F381244CBFC0432846022C71
:1083000009D00ED8012C40EA06000DD004B0BDE81B
:10831000F04100F0F3BB304304B0BDE8F04100F0A1
:10832000F5BB00F0EBFB304604B0BDE8F04100F0D7
:10833000DDBBC4F30122D3B2FDB102F00103002B77
:1083400088D0C4F34210830004F00F0000FA03F554
:1083500014F010001CBF0F209840C4F3812418BFF4
:10836000C043022C0BD010D8012C40EA05000FD0DE
:1083700004B0BDE8F04100F001BC5B08DFE7284332
:1083800004B0BDE8F04100F001BC00F0F7FB284666
:1083900004B0BDE8F04100F0E9BBE6B2F02E2FD00A
:1083A00009D8A6F1C0031F2B13D9002D4ED0002FE2
:1083B00049D030460EE7F22E37D02ED3F32EF4D12B
:1083C000002D3BD0C4F3042004B0BDE8F04100F020
:1083D000A8BBC4F3042006F0100745B100F0A6FBCB
:1083E00017B13601F0B222E706F00F001FE700F0E8
:1083F000A7FB17B13601F0B237E706F00F0034E7FC
:108400004DB1042F3FF626AFC4F3042004B0BDE8FD
:10841000F04100F0A1BB052FF4E7C4F3042045B1FF
:1084200004B0BDE8F04100F081BBC4F30420002D8E
:10843000F6D004B0BDE8F04100F082BB04B0BDE866
:10844000F04100F06BBBC4F30420E9E70FB1304604
:1084500015E7C4F30420ECE7C4F30322E1B240467D
:10846000FEF790FA04B0BDE8F041FFF71BBB14F033
:10847000FF0F7FF4EFAE002D3FF4ECAE0C4DFFF795
:1084800051FE322445F001054FF47A40A847013CE3
:10849000FAD104B0BDE8F041FEF71FB9C4F30322DE
:1084A000E1B2404604B0BDE8F041FEF72BB900BF91
:1084B000403403001FB56B4683E80300BDF8042079
:1084C000BDF80010ADF80C101AB9002005B05DF829
:1084D00004FBBDF80C104FF6FF729142F5D093E803
:1084E000030000F05DFB0123C0F30332934013F45B
:1084F000104F1CD113F4406FC0B208D113F00C0F11
:10850000E3D0A4280CD8042808D2012806D9E728EB
:108510000AD8E02802D20438A028D6D80120D5E70E
:10852000A0F1E003072BF1E7F028CED1F6E7C0F386
:10853000C020CBE782B002AB03E9030002B0704772
:1085400082B002AB03E9030002B0704770B5094B7B
:10855000094E1C78094D3378A34200D170BD05EB5C
:10856000C40355F8340059680134FFF7E9FF04F0FB
:108570000704F0E7932F0020922F0020522F0020B5
:10858000024B18685968FFF7DBBF00BF4A2F002075
:10859000F7B5224B9A7912F0F00F0AD19A7842B1CE
:1085A0001F4A204F1278204E4FF6FF7C39789142B7
:1085B00001D103B0F0BD988858B319785C788DF874
:1085C00004108DF80540BDF80450654521D006EB38
:1085D000C20595F801E0A6451BD116F832408C4241
:1085E00017D1A978A9B9A988091A89B2C72910D8B9
:1085F00099790A48012262F307119971AB7962F304
:108600000713AB71FFF796FD03B0BDE8F040FFF72D
:108610009DBF013202F00702C8E700BF4A2F0020C9
:10862000932F0020922F0020522F00202DE9F04F91
:10863000A74E91B0044600680A90B088358821782A
:108640006278A778B4F80490ADF80C500AAB96F8AD
:1086500000E096F801C0B046002800F04181ADB2BC
:108660004FF6FF7A554500F03B81B5780195002D16
:1086700000F03681A9EB000096F806B080B2C7285A
:108680000BF0F00500F2D280002D40F081808DF8D3
:1086900010E08DF811C0BDF8100050453D4619D0CE
:1086A0008DF828108DF829203088BDF828C0844521
:1086B00010D17FB9012363F3071B86F806B0FFF7DB
:1086C0005FFF3046FFF736FDB379A371284611B03E
:1086D000BDE8F08FB9F1000F09D1002FF6D098F85E
:1086E000063043F0010388F806300025EEE78DF8E8
:1086F00024108DF82520BDF824604FF6FF708642C7
:10870000EBD0002FEBD17348734E007896F800E061
:10871000DFF8C8C1704514D18DF829208DF82A7072
:10872000ADF82C908DF8281093E8030000F038FA8B
:10873000C0F30332C3B2032A1DD8DFE802F01313DB
:1087400021210CEBC00696F80180904506D11CF85B
:108750003080884502D1B678002EB7D1013000F0C4
:108760000700D7E710F4706F01D0002BAED0203394
:10877000DBB2072BAAD92046FFF7DCFC019DA5E759
:1087800010F4706FF3D0A27912F0F00FEFD19DE7E3
:108790008DF814E08DF815C0BDF81400504515D0C3
:1087A0008DF828108DF829203088BDF82850854292
:1087B0000CD15FB984F806B02046FFF7BBFC2368F4
:1087C000336063687360FFF7DBFED7E78DF82A70CC
:1087D000ADF82C908DF828108DF8292093E803002F
:1087E000FFF768FE002800F00381002F00F00081F1
:1087F00098F806301F2B0DD9B8F80020ADF83020BE
:1088000000228DF83220ADF834908DF836300CA867
:10881000FFF790FC2368C8F800306368C8F804309C
:10882000FFF7B6FEFFF7ACFE01254FE79DB98DF8C7
:1088300029208DF82A70ADF82C908DF8281093E837
:108840000300FFF777FE3046FFF774FC3560756074
:10885000FFF796FE3AE78DF818E08DF819C0BDF8DD
:108860001800504511D08DF828108DF82920308837
:10887000BDF82850854208D13FB984F806B020469B
:10888000FFF758FC3760776078E78DF82A70ADF80D
:108890002C908DF828108DF8292093E80300FFF71D
:1088A00009FE002800F0A480002F00F0A18098F8B5
:1088B00006301F2BAED9B8F80020ADF838200022C2
:1088C0008DF83A20ADF83C908DF83E300EA89FE729
:1088D0004A2F0020932F0020922F0020522F00209B
:1088E000002875D08DF81CE08DF81DC0BDF81C5017
:1088F0004FF6FF76B5426BD098F80250002D67D145
:10890000A9EB000080B2C72851D83D46002F6FD098
:108910008DF820E08DF821C0BDF82000B0422DD0A8
:108920008DF828108DF82920B8F80000BDF82860CF
:10893000864223D198F80630DA0718D413F0F00FE6
:1089400015D003F0F002F02A1CBFC3F3031201326A
:10895000A3711CBF62F30713A3712046FFF7EAFB64
:108960002368C8F800306368C8F8043070E72368EB
:10897000C8F800306368C8F80430A7E68DF82A709C
:10898000ADF82C908DF828108DF8292093E803007D
:10899000FFF790FD00287FF43DAF98F806302046A1
:1089A00043F0010388F80630FFF7C4FB8EE68DF82C
:1089B0002A70ADF82C908DF828108DF8292093E8B6
:1089C0000300FFF7B7FDC8F80050C8F804503FE7B0
:1089D00077B18DF82A70ADF82C908DF828108DF8AD
:1089E000292093E80300FFF765FD00287FF412AF0C
:1089F0002046FFF79FFB17E7F0B587B06C4684E889
:108A000003002046FFF712FE2D4E2E4D074688B17B
:108A1000BDF80430BDF80020ADF8082043B192B293
:108A20004FF6FF739A4203D094E80300FFF788FDE6
:108A3000254C40E094E8030004AB83E80300BDF854
:108A40000420BDF81010ADF80C10002AF0D089B247
:108A50004FF6FF729142EBD034782978621C02F015
:108A600007028A420BD0184F327003CB07EBC40CBD
:108A700047F83400CCF80410FFF768FDD8E7FFF79B
:108A800051FB124B37702F701F605F6007B0F0BD55
:108A900004EBC000FFF7CAFD0028F7D02B7804EBE9
:108AA000C30254F833005168FFF74AFD2B780133B5
:108AB00003F007032B70287833788342E8D1E5E789
:108AC000922F0020932F0020522F00204A2F0020A9
:108AD000014B186000F054BAC82F00207047000006
:108AE000014B186000F04BBA942F0020024A136823
:108AF0001843106000F043BA942F0020024A136814
:108B00001840106000F03BBA942F0020024A13680E
:108B10005840106000F033BA942F00200020FFF777
:108B2000D7BF012303FA00F0FFF7D2BF012303FAF6
:108B300000F0024B1B681843FFF7CABFC82F002084
:108B4000012303FA00F0034B1B6823EA0000FFF740
:108B5000BFBF00BFC82F0020012303FA00F0024B63
:108B60001B685840FFF7B4BFC82F0020024B1B689A
:108B70001843FFF7ADBF00BFC82F0020024B1B6892
:108B80001840FFF7A5BF00BFC82F0020024B1B688D
:108B90005840FFF79DBF00BFC82F0020704700005E
:108BA0002DE9FF416B4683E80300BDF80430002B3C
:108BB00042D09DF800609DF801508DF808608DF856
:108BC0000950BDF808204FF6FF739A4234D09DF843
:108BD00002305BB31B4B1C4A1B6812688DF80C609B
:108BE0008DF80D5043EA02081F2728FA07F3DB0728
:108BF000FCB213D417F1FF37F7D20024134A0C2329
:108C000003FB05239C558DF800608DF801500099F9
:108C1000204604B0BDE8F04100F0B7B90399204602
:108C200000F0B3F980B20128E4D0E7E7074A0C234B
:108C300003FB05239C5DE6E74FF0000004B0BDE8B0
:108C4000F08100BFC82F0020942F0020982F002013
:108C50002DE9F0474B4B1B788BB14B4B1B7873B115
:108C6000C2081A2A09D8494B1B68134400F00702AE
:108C7000012090405A7810435870BDE8F087444D69
:108C8000DFF8088195F90070DFF80CC177B3414E29
:108C9000D8F8009096F900309CF90020B6461C46A2
:108CA0004FF0FF31062609EB040A9AF802A050455E
:108CB000E3D0B1F1FF3F03D1BAF1000F08BF214665
:108CC00004F1010A9AFBF6F406FB14A464B2944280
:108CD000E9D1A3420AD14A1C1AD10133013F93FBC7
:108CE000F6F206FB12368EF800602F709CF9003009
:108CF000D8F800201A4406210133907093FBF1F25A
:108D000001FB12338CF800302B7801332B70B4E761
:108D10004F1C97FBF6F206FB127252B24FF0010E97
:108D20004FF000090626D8F8007007EB020A9AF8FF
:108D300002A0BAF1000F1FD00F4487F802A0D8F8A4
:108D40000070174487F802904F1C97FBF6F106FB62
:108D5000117149B2571C97FBF6F206FB127252B220
:108D60009442E0D1A3EB0E03063393FBF6F206FB2D
:108D700012338CF80030B9E70EF1010E5FFA8EFE67
:108D8000E8E700BF2029002072250020742500207C
:108D9000E82F0020E92F0020EA2F00202DE9F043E2
:108DA0002D4B1B7893B12D4B1B787BB1C2081A2A2F
:108DB0000AD82B4B1B68134400F0070001228240A5
:108DC000587820EA02005870BDE8F083254E96F9E5
:108DD0000030002BF8D0244D214F244C2978D7F8AF
:108DE000008094F900E04FF0060C08EB010292F8C5
:108DF0000290814527D1013B00205BB29070337017
:108E00000BB92B70237094F9003006225E1D96FB7F
:108E1000F2F002FB10608142D6D13E6895F9005015
:108E2000053393FBF2F102FB11314BB2053191FB9B
:108E3000F2F002FB10113144897809B12370C3E7C5
:108E4000AB42EDD1FAE7013191FBFCF20CFB1212BF
:108E50007245D1B2C9D1B7E7202900207225002080
:108E600074250020E82F0020E92F0020EA2F0020A1
:108E70000448012300210268D15401331C2BFAD18C
:108E8000704700BF74250020014B1878704700BF61
:108E9000EC2F0020024A137818431070704700BF6F
:108EA000EC2F0020024A137823EA0000107070476C
:108EB000EC2F0020014B1870704700BFEC2F0020F2
:108EC000014B00221A707047EC2F0020024A1378E1
:108ED00018431070704700BFED2F0020024A13782E
:108EE00023EA000010707047ED2F0020014B002294
:108EF0001A707047ED2F0020014B1870704700BFAB
:108F0000EB2F0020014B00221A707047EB2F00203E
:108F1000064B1B6800205A1C1C3312F8011B09B1B8
:108F20000130C0B29A42F8D1704700BF74250020CA
:108F300038B50E4C0E4922680978117021680D4829
:108F40000A7800780C4D02430A7095F9002042B16E
:108F5000236819780A431A70FFF7DAFF08B1002373
:108F60002B702068BDE83840FEF710BF7425002044
:108F7000EC2F0020ED2F0020EB2F002070477047D2
:108F80007047FEF7ADBF0020704707B5ADF804107D
:108F90000199FDF7B1FCA0F1C0021F2A034604D8D5
:108FA000FDF7D6FC03B05DF804FBBE2809D8A8285D
:108FB00025D2A42815D8042811D2012809D00023CD
:108FC00007E0E72807D8E02809D2BF28F7D14FF4F7
:108FD00060431846E6E7F028F1D340F4A0439BB283
:108FE000F7E7A52808D044F2820244F28300A62BBA
:108FF0000CBF13460346ECE744F28103E9E730D0A7
:10900000A92831D0AA2832D0AB2833D0AC2834D00C
:10901000AD2835D0AE2836D0AF2837D0B12838D0DB
:10902000B02839D0B2283AD0B3283BD0B4283CD0AD
:10903000B5283DD0B6283ED0B7283FD0B82840D07C
:10904000B92841D0BA2842D0BB2843D0BC2844D04C
:10905000BD2845D0BE2844F2704318BF4FF4884362
:10906000B7E744F2E243B4E744F2E943B1E744F23C
:10907000EA43AEE744F2B543ABE744F2B643A8E7B0
:1090800044F2B343A5E744F2B443A2E744F2B74342
:109090009FE744F2CC439CE744F2CD4399E744F286
:1090A000835396E744F28A5393E744F2925390E74E
:1090B00044F294538DE744F221638AE744F2236338
:1090C00087E744F2246384E744F2256381E744F2AE
:1090D00026637EE744F227637BE744F22A6378E75E
:1090E00044F26F4375E72DE9F34106460025EFB2E0
:1090F0003846FDF76BF90024804648FA04F2D2079F
:10910000E3B21AD58DF804308DF80570019900206E
:10911000FFF73BFF83B2B3420BD0C0F3072313F03A
:10912000C00F03F0E00201D0A02A06D1C0B2B042C5
:1091300003D1012002B0BDE8F08101340C2CDCD158
:109140000135042DD3D10020F4E710B504460920E1
:10915000FFF7C9FF20B12046BDE81040FFF7C3BFAD
:1091600010BD000038B5FDF7C3FF60BB164DC92424
:1091700045F0010504E0FDF7C5F84FF47A40A84733
:10918000013C14F0FF04F6D15520FFF7DEFF0F4B32
:1091900018700D20FFF7D9FF48B90024FEF7F0F84A
:1091A00088B984B90420BDE8384003F0E1B85720FD
:1091B000FFF7CBFF0028F0D15620FFF7C6FF80F065
:1091C0000100C4B2EAE738BD503403003C3400204B
:1091D000194B1B78D90709D5184B187800EB80007C
:1091E00080087F2823D820B3C0B270479A0705D5DE
:1091F000124B187800EB80004008F2E75B0704D5BB
:109200000E4B187800EB8000EBE70D4B1B7863B139
:109210000C4A0A4912780878934200EB80003EBF5E
:10922000584390FBF2F080B2DBE70520DCE77F20BB
:1092300070470120704700BFF72F00207A250020DB
:10924000F82F00207B250020154B1B78D90705D56A
:10925000144B1878800800B3C0B270479A0703D542
:10926000104B18784008F6E75B0705D50D4B1878CA
:109270007F28F0D97F2070470B4B1B785BB10B4ADE
:10928000084912780878934236BF10FB03F080B289
:1092900090FBF2F0ECE70120DEE70120704700BF11
:1092A000F72F00207C250020F82F00207D250020AE
:1092B000F02808B505D1FFF78BFF40422F4B98707F
:1092C00008BDF12802D1FFF783FFF7E7F22805D1A7
:1092D000FFF77EFF4042294B5870F1E7F32802D197
:1092E000FFF776FFF7E7F92804D1FFF7ADFF234B2F
:1092F000D870E5E7FA2803D1FFF7A6FF4042F6E76A
:10930000FB2805D1FFF7A0FF40421C4B1871D7E79F
:10931000FC2802D1FFF798FFF7E7F42804D1174A99
:10932000137843F0010313E0F52804D1134A1378AE
:1093300043F002030CE0F62804D1104A137843F0FE
:10934000040305E0F72805D10C4A137843F008031D
:109350001370B5E7F82804D1084A137843F01003D6
:10936000F6E7FD2801D1064ADAE7FE2801D1044AD2
:10937000DDE7FF28A4D1024AE0E700BFF22F00207A
:10938000F72F0020F028404B14D193F90220002A37
:1093900001DA00229A7093F9012052B993F9022060
:1093A0003AB993F9032022B993F904300BB9374A3B
:1093B00013707047F12804D193F90220002AE8DCE9
:1093C000E9E7F22893F9012004D1002AE3DA002228
:1093D0005A70E0E7F32802D1002AF8DCDBE7F9282D
:1093E00006D193F90320002AD5DD0022DA70D2E7F6
:1093F000FA2804D193F90320002ACCDAF5E7FB28F8
:1094000006D193F90420002AC5DA00221A71C2E7B6
:10941000FC2804D193F90420002AF6DCBBE7F428E9
:1094200004D11A7822F001021A70B4E7F52803D1AA
:109430001A7822F00202F7E7F62803D11A7822F010
:109440000402F1E7F72803D11A7822F00802EBE7CB
:10945000F82803D11A7822F01002E5E7FD2805D19B
:109460000B490A7822F001020A7094E7FE2804D121
:1094700007490A7822F00202F6E7FF288BD1044957
:109480000A7822F00402EFE7F22F0020F82F0020E4
:10949000F72F002008B50448FEF780FCFDF70AF915
:1094A000024B188008BD00BFF22F0020F02F0020D3
:1094B000F8B5414B1888FDF707F940490A78A2B181
:1094C0003F4B1B7898420FDB3E4C94F9013094F9E6
:1094D000025094F9037094F9046063B9002D61D1CE
:1094E000002F5FD1002E5DD1F8BD374B1B7803EB09
:1094F00083035B00E6E7FF2A01D001320A70002BEC
:1095000002DDFFF765FE607094F90130002B03DA8D
:10951000FFF75EFE40426070002D02DDFFF758FE4F
:10952000A07094F90230002B03DAFFF751FE40429D
:10953000A07094F90100B8B194F90250A5B109F0F6
:109540005DFC1BA3D3E9002309F0C2FC09F0D2FEA5
:109550006070284609F052FC15A3D3E9002309F0F6
:10956000B7FC09F0C7FEA070002F02DDFFF76CFE0C
:10957000E07094F90330002B03DAFFF765FE4042F8
:10958000E070002E02DDFFF75FFE207194F90430D9
:10959000002B03DAFFF758FE40422071BDE8F84087
:1095A000FFF778BFFF2AA8D1B6E700BFAFF300806E
:1095B000666666666666E63FF02F0020F82F00209C
:1095C00079250020F22F002078250020044A00236E
:1095D00013601371034A1370034A1370704700BF7E
:1095E000F22F0020F82F0020F72F0020C0B208B57E
:1095F000052821D8DFE800F01C151A0D0307BDE887
:10960000084003F067B90D4B1878BDE8084003F037
:109610004DB90F20FDF7D2FA0F20BDE80840FDF745
:109620009DBA0220BDE8084002F0A2BE0320F9E77F
:10963000BDE80840FDF751B808BD00BF1D3000204F
:10964000024A0348002109F0ABB900BFED950200C2
:10965000583403000020704738B54D4A137804464B
:10966000002B40F08F804B4A12681278222A40F07B
:109670008C80FFF7EFFF0546002851D1152C6BD0E9
:109680001ED8102C58D00ED8082C60D003D8052C2A
:1096900069D0002045E00B2C6FD00C2CF9D1FEF7DF
:1096A00041FD032250E0122C4BD032D3132C60D05A
:1096B000142CEED1FEF736FD374B00221A700DE068
:1096C0002A2C20D019D8262C0FD81E2C2AD21A2C9E
:1096D000DFD1FEF727FD304B01241C70052240F23C
:1096E00033312E4809F06EF91AE0272CD1D1012030
:1096F000FFF7F6F9FEF716FD12E0422C07D83A2CD8
:1097000017D2352CC5D1FEF70DFD02222EE0432CD9
:10971000ECE7FEF707FD224A137883F0010313708C
:10972000012038BDA4F11D00C0B2012404FA00F0EC
:10973000DEE7A4F13900F7E7FEF7F4FCFEF778F86E
:10974000EEE7FEF7EFFC042240F26661C9E7FEF7A0
:10975000E9FC114B0222B1E7FEF7E4FC29460320A5
:1097600003F0C4F8DCE7FEF7DDFC00224FF4005103
:10977000B7E7FEF7D7FC0122F8E7FEF7D3FC03F0CA
:10978000EFFBCDE700201070CBE71846C9E700BF1C
:109790001C300020742500201D300020FC2F0020EC
:1097A00072250020064B1B7813F0010F4FF0A043E9
:1097B0004FF000720CBFC3F80C25C3F808257047A2
:1097C000483000201849CB7913F03F0F084614D1D8
:1097D0004B799B0613D1CA7812F03F0311D14A7816
:1097E000920601D000EB43014B7803F03F03032BBB
:1097F00013D8DFE803F008080D130323F2E7022370
:10980000F0E70123EEE7094A137823F0010303E0B0
:10981000064A137843F0010313707047034A117826
:109820004BB2C907F1D4F5E74030002048300020A2
:1098300070B52C49CB7913F03F0F084629D14B79ED
:109840009D0628D1CA7812F03F0326D14A789406A3
:1098500025D000EB4302517801F03003102B3BD1AF
:10986000214D01F00F0414F003062B78284618D080
:10987000B6EB131F15D86FF30501002351702B7041
:10988000FFF7A0FF194B1B7833BBBDE87040FFF713
:1098900089BF0323DDE70223DBE70123D9E70A467B
:1098A000D9E71A071CD1124923F00F0303EB9403E5
:1098B0000A78DBB2037002F0010416B10CB1103368
:1098C000037053B24CB943F001030B7001230278CB
:1098D000013A0270002BD5D170BD23F00103F4E7EB
:1098E0000023F4E7403000201E30002049300020E3
:1098F0004830002005282DE9F74305460C4637D0AF
:10990000092852D00023344FDFF8E0C0DFF8E0E050
:10991000E4B21E469846FA1813F8079011798DF8AC
:109920000410D17810680090A94501F003019078E7
:1099300011D15278A2420ED1C2070CD59DF8030076
:109940008EF8008002AA61F3010002F8050D12886A
:109950002CF8112001260533142BDCD1C6B3FFF7F8
:1099600031FFFFF71FFF03B0BDE8F043FEF7D2B8A9
:1099700002290DD0032912D00129C3D14FF0A043F1
:109980000322C3F864271548154A09F009F8B9E716
:10999000002240F26661134809F014F8B2E74FF074
:1099A000A0430222C3F86427ACE7022906D00329AA
:1099B000A8D1FFF7F7FE0C4B002207E04FF0A043C1
:1099C0004FF00072C3F80C25074B01221A7099E77B
:1099D00003B0BDE8F08300BF603403005C340300D3
:1099E0003198020020300020493000204030002013
:1099F0001E3000200649074A074B9B1A03DD043B33
:109A0000C858D050FBDC00F04DF8FCF719FC000002
:109A10003436030000250020F4280020FEE7FEE78E
:109A2000FEE7FEE7FEE7FEE7FEE7FEE7FEE7FEE70E
:109A30000C4B1B78062B10D10B4B1B681A070CD153
:109A40000A4B186800F0F003302B08D000F0E0005B
:109A5000A0F1400358425841704700207047012050
:109A6000704700BFE00F00F0E40F00F0E80F00F0D7
:109A7000094B1B78062B0CD1084B1B681A0708D121
:109A8000074B186800F0F000A0F13003584258412D
:109A900070470020704700BFE00F00F0E40F00F0B7
:109AA000E80F00F008B5FFF7C3FF28B1734B744A05
:109AB0001B68C3F304231360FFF7DAFF10B1714B87
:109AC000714A1A60FFF7B4FF28B1704B704A1B68E7
:109AD000C3F342331360FFF7CBFF20B16D4AD36865
:109AE00023F08073D360FFF7A3FF40B14FF08043B2
:109AF0000022C3F80C21C3F81021C3F83825FFF762
:109B0000B7FF10B1644B03221A60FFF7B1FF40B1F9
:109B1000624B05221A6001229A6700229A603F2256
:109B20005A605F4B1B78062B50D15E4B1B681907A0
:109B30004CD15D4B1B6803F0F003502B46D14FF026
:109B400080525A4BD2F80414C3F82015D2F80814E6
:109B5000C3F82415D2F80C14C3F82815D2F8101441
:109B6000C3F82C15D2F81414C3F83015D2F8181411
:109B7000C3F83415D2F81C14C3F84015D2F82014D9
:109B8000C3F84415D2F82414C3F84815D2F82814A1
:109B9000C3F84C15D2F82C14C3F85015D2F8301471
:109BA000C3F85415D2F83414C3F86015D2F8381439
:109BB000C3F86415D2F83C14C3F86815D2F8401401
:109BC000C3F86C15D2F84424C3F87025FFF730FFB2
:109BD00028B1374B374A1B6803F04F031360FFF778
:109BE00027FF48B14FF08043D3F80024D20744BF89
:109BF0006FF00102C3F800242F4B1B68062B08D11D
:109C00002E4B1B68062B01BF2D4A136843F480635B
:109C100013604FF01023D3F80C32DB0729D5294B02
:109C20000122C3F80425D3F80024002AFBD04FF00A
:109C30001022D2F80C3223F00103C2F80C32214B6F
:109C40001A46D3F800140029FBD00021C3F80415EC
:109C5000D2F80034002BFBD0BFF34F8F1A491B4BB7
:109C6000CA6802F4E0621343CB60BFF34F8F00BFBA
:109C7000FDE7174B174A1A6008BD00BF2403001008
:109C80004035014074C007400DF0ADBA44020010E9
:109C90003C050040F0ED00E0A005004010560040FB
:109CA000E00F00F0E40F00F0E80F00F000C000400B
:109CB00058020010E40E0040300100103401001082
:109CC0003C17004000E0014000ED00E00400FA0510
:109CD000802500200090D0031FB50021039001AA29
:109CE00044F20100CDE9011100F004F805B05DF87F
:109CF00004FB000072B6094B1B68DB0700D500BEF1
:109D0000BFF34F8F0649074BCA6802F4E062134362
:109D1000CB60BFF34F8F00BFFDE700BFF0ED00E069
:109D200000ED00E00400FA0512F0030310B511D1B4
:109D3000094C22604C1CE400A4B22244074C22606F
:109D4000074A1370074A1370074A1080074A1846DB
:109D5000118010BD0720FCE7503000204C3000205F
:109D60004A30002058300020543000205630002067
:109D70002DE9F3472B4D2B888B4206460C461746A0
:109D80004BD302A84FF0000800F8018D00F088F8CE
:109D9000254B264A18781178CBB2254909888B4281
:109DA00038BF0133C0B238BF5FFA83F840452ED0C8
:109DB00092F800801378DBB2994286BF0133DBB2A0
:109DC000002313709DF8070000F08EF84FF6FF7324
:109DD000984524D0DFF860A0DAF800304FEAC809CF
:109DE00003EB090243F83870A6B19CB1114B2888E7
:109DF0001B68224608FB0030314608F090FEDAF876
:109E000000304B4400209C8002B0BDE8F0874FF644
:109E1000FF78D7E700209080F6E70920F4E70420D8
:109E2000F2E700BF54300020583000204A300020B4
:109E3000563000204C30002050300020F8B5124C35
:109E4000124D264622782B789A4200D1F8BD23780D
:109E50000F48104A078812680F48DBB219B202EBAC
:109E6000C10C006852F83120BCF8041003FB070055
:109E700090470A4A23781288DBB29A4286BF0133A0
:109E8000DBB200233370DDE7583000204A30002079
:109E900054300020503000204C300020563000203C
:109EA00070B5EFF3108672B60C4A946801239CB922
:109EB00093600B4B0B4DD3F8801029401160C3F811
:109EC0008050D3F8841051604FF0FF32C3F88420E3
:109ED000047006B962B670BD0370FAE72C3E00202C
:109EE00000E100E0FC06FFBD10B5084B9A685AB1CE
:109EF00050B9EFF3108172B6054A1C6814605C68B3
:109F00005460986001B962B610BD00BF2C3E0020BD
:109F100000E100E070B5064E0546002456F82430F6
:109F20000BB1284698470134042CF7D170BD00BF0F
:109F300068300020033080B240F2FD33984230B5E3
:109F40001FD8124B1A783AB91C895D892C440444F5
:109F5000A4B2B4F5806F0AD31A7DA2B99A8BDC8BB8
:109F60002244024492B2B2F5806F0CD201220A80E0
:109F70001446142202FB04335A89104458810020ED
:109F800030BD0920FCE70720FAE700BF9C30002025
:109F90000B4A0C4B5188142000FB0131CB6833B9BC
:109FA0000420496810700122074801F01AB80523FF
:109FB0000649137002238B80012200230968F3E70E
:109FC000803000209C3000208C280020643100204C
:109FD00007B5002305490093054A09680548082389
:109FE00000F0D1FF03B05DF804FB00BF6431002036
:109FF000803403008C28002007B50023009301461D
:10A000000823034A034800F0BEFF03B05DF804FBD9
:10A01000783403008C28002013B500230C460093ED
:10A0200001460423074A084800F0ADFF38B9074B42
:10A03000142202FB04340123237402B010BD0E204D
:10A04000FBE700BF743403008C2800209C30002004
:10A0500037B50A480A4B42689C881968538803251B
:10A06000033305709BB2002000909B0001EB84013C
:10A07000044800F088FF03B030BD00BF80300020EE
:10A08000643100208C28002010B50146044800F0FF
:10A0900056FE1C220446002108F04CFD204610BD4F
:10A0A000503100204388033300EB8303994209D3E6
:10A0B00082884FF6FF739A4206D00088B0FA80F08B
:10A0C0004009704702207047012070472DE9F8438E
:10A0D0000223DFF860800B800D46174600F580569E
:10A0E00000F108044FF00109B4420FD22368013394
:10A0F0000CD031462046FFF7D5FF48B10FB187F8A5
:10A10000009002280BD14FF480632B80BDE8F883C8
:10A11000A368D8F80020934201D9C8F800302B88F2
:10A120006288033313442B806388033304EB830476
:10A13000DAE700BF9430002070B5144A142303FB03
:10A1400000200B6844680D4604F580569BB15C887E
:10A15000033403EB8404B4420BD22368013308D0E8
:10A1600031462046FFF79EFF012809D005D302287B
:10A17000F1D1002003E00834EDE72C60012070BD30
:10A180006388033304EB8304E5E700BF9C300020C1
:10A1900073B5436805460C466BB3254AD1688B42BC
:10A1A00029D31269934226D813F0030223D12149FF
:10A1B0000089098988421ED12868996888421AD185
:10A1C0001D494868834203D900F5805083420ED36D
:10A1D0008A6993420DD902F58052934209D2012334
:10A1E00023800020B0FA80F0400902B070BD134611
:10A1F000F6E70A20F6E7002323801E462388012B7A
:10A2000001D90020F1E7019601A92088FFF794FF0A
:10A2100018B9238801332380F0E7019B2A689968E5
:10A220009142F1D16B60034B1B892B81DDE700BFAD
:10A230008C280020803000209C3000202DE9F8433D
:10A240001C461F4B1B7806460F461546002B32D086
:10A25000002A32D0002C30D0DFF86C804FF0140987
:10A26000A388012B01D90A201BE009FB03F318F88E
:10A270000330C3B1A3880133A380F1E723681EB183
:10A280009988328891420ED11FB119883A8891423B
:10A2900009D19B682B6023686B600A4B1B892B815B
:10A2A0000020BDE8F8832146A088FFF745FF00287D
:10A2B000E4D12060DEE70220F3E70520F1E700BFEC
:10A2C00078300020803000209C30002008B5074BFB
:10A2D000191D5888FFF730FF18B1BDE80840FFF797
:10A2E000B7BEBDE80840FFF753BE00BF8030002076
:10A2F0002DE9F04FA04FDFF8A49289B00646B8468A
:10A300003B6823B949469D4800F053FD3860D8F8B2
:10A31000005029784B1E052B00F21381DFE813F063
:10A32000060076007600070107015D0126B1944B17
:10A3300000225A60012424E02B79032B1DD8DFE88A
:10A3400003F01502424D8F490B78022B084631D09D
:10A350000B7D022B4FF001032ED114225343C21860
:10A360000020C8545068FFF747FE03E001232B711B
:10A37000FFF72EFE002800F0D480814B00225A60A7
:10A380000E241422002103A808F0D4FB41F61D532B
:10A390009C4208BF0024D8F8003004941A78023A8E
:10A3A000042A00F2D381DFE812F0B401C001E30116
:10A3B000EB01F2010023D0E7714A137000235360D0
:10A3C00041F61D54DDE770497048002302222B71CD
:10A3D0008A800122096800F004FECBE76A4C00265F
:10A3E0002E712068674DFFF707FE694BD4F800C057
:10A3F0005A8814235343EA18EE5451682160A18807
:10A40000C2F804C011810222A280B3E7B5F814A0FB
:10A41000AA7DDFF870B11423AEB1022A06D903FB7E
:10A420000AB3EA88198903320A441A81142303FB08
:10A430000ABAEB88BAF80A20C3F57F43FD33134408
:10A44000AAF80A3076E703FB0AB318895C6804EBC4
:10A450008004062A05D8DFE802F0274D35431D5950
:10A4600067000F24AB7D022B07D9142202FB0AB22E
:10A47000EB88118903330B441381142303FB0ABABD
:10A48000EB88BAF80A20C3F57F43FD331344AAF8DA
:10A490000A3076E73F48404900234360AB690360D8
:10A4A000FFF776FE00285AD00223AB7500230093F5
:10A4B0000423EA182146354800F065FD002830D015
:10A4C0000E24CFE72B69002B0CBF01230323AB75B0
:10A4D0000023009305F10C02042304F10801EAE7CC
:10A4E0000123AB750022EB8800929B002A6904F1DE
:10A4F0000C01E0E7032914BF06230523AB750023F5
:10A500000093042305F10802E118D4E70623AB7594
:10A51000214B19881F4B5868FFF77EFD0446002821
:10A52000A0D109B0BDE8F08F41F61D549AE7002E86
:10A530007FF400AF2B79012B32D004D3022B3FF4F0
:10A540003FAF0F241DE702232B71CDE904660DF107
:10A550000A01EB68039303A8FFF71AFE08B90A245F
:10A560000FE70498BDF80A108388EB8003882B81DD
:10A57000FFF752FD044626E09830002050310020BD
:10A58000783000209C300020643100208C2800208E
:10A59000803000205C30002070310020903000209E
:10A5A000DFF808A203AA53463146A81DFFF746FE6E
:10A5B000044660B9BAF804100498FFF72DFD04466C
:10A5C0000A2C3FF4FDAE002C7FF4DBAEA9E7082295
:10A5D0003146504608F0AEFAF2E7002E7FF4AAAEFC
:10A5E0006D4B1A7BB2B11E731A78013A062AA8D8AD
:10A5F00001A151F822F000BF9FA60200C5A60200EB
:10A60000E3A60200E9A6020043A50200EFA60200AD
:10A6100005A702001A78072AE6D801A151F822F00E
:10A6200041A60200E9A50200E9A5020067A6020012
:10A630007BA602009BA602009BA6020063A6020066
:10A640001A89564901321A8100225A801A730A78EF
:10A65000B2FA82F252099A720A7DB2FA82F2520971
:10A66000DA72012207E04E4958688A88408803322E
:10A6700002448A8002221A70B6E7484C5A88484938
:10A68000142505FB024208685468506088881081D0
:10A6900002228A800C600622EDE70722EBE79A7A15
:10A6A00032B9DA7A8AB900221A705A805A6087E67B
:10A6B0003A4900229A72CA68002AF2D1097C00291C
:10A6C000EFD05A80FFF702FE54E70022DA72334AD5
:10A6D000116A0029E7D192F82420002AE3D0012250
:10A6E000EFE7FFF7B5FC45E7FFF752FC42E706222C
:10A6F0001A702A4A5B88142101FB03235868FFF76C
:10A700007BFC37E707221A7000225A60FFF760FCD3
:10A7100030E701228DF80C201A89ADF818209A88AC
:10A72000ADF81A20DB68059310E002228DF80C20AA
:10A730001A89ADF818209A88ADF81A20DA680592BF
:10A740009B7D9A1F534253418DF81C3003A8FFF79D
:10A75000E1FB002649461348C8F8006000F054FBAE
:10A760000121114800F0F8FB00287FF4C9ADD8E6BC
:10A7700003228DF80C20DA88ADF818201A89CFE76B
:10A7800004228DF80C20DB88ADF81830DEE70523B5
:10A790008DF80C30DAE700BF803000209C300020BC
:10A7A00064310020503100206031002074310020DD
:10A7B0004068FFF79DBD000008B50121044800F086
:10A7C000B5FB18B9BDE80840FFF792BD08BD00BF52
:10A7D000603100202DE9F3419846344B1B78064642
:10A7E0000D46002B59D0002959D009884FF6FF7328
:10A7F000994256D06B88002B53D06B689B0752D17F
:10A800004AB92F890DF102013846FFF793FB30B1A9
:10A8100002B0BDE8F08113885788ADF8023001A876
:10A82000FFF732FC044658B9BDF80230204A142123
:10A8300001FB032358890338C01B58810820E7E730
:10A8400080F8008000238375BDF8023083826B6836
:10A8500003610121174800F074FBE0602B8823811D
:10A860006B88A380B8F1030F04BF0423A375E780AE
:10A8700004BF3368A3610025658101A90E4800F07B
:10A8800088FA36B17560E36833600C4BB5721B898A
:10A890003381FFF791FF0020BAE70220B8E70520D7
:10A8A000B6E70420B4E70320B2E700BF7830002009
:10A8B0009C30002094300020503100208030002057
:10A8C00008B5084B1A68042A09D01968064A42F8E4
:10A8D00021000121184600F034FB002008BD0C20A7
:10A8E000FCE700BF6C310020683000202DE9F04FFC
:10A8F00089B01422002103A808F01CF9724A1378C9
:10A90000904603F0FF0B3BB103A8FFF703FB0027C2
:10A91000384609B0BDE8F08F101D00F028FB054651
:10A920000028F4D140F6F8734FF080521B685C1C8D
:10A9300008BF664B664C08BF1B6811695269581CFA
:10A9400008BF02FB01F323610022A3F540536149D4
:10A95000E360204600F00EFB009407460028D7D1A4
:10A960001C238C225C495D485D4E00F0B3F9BA4669
:10A970004FF003093C46009BDA680AEB02000346ED
:10A980005AF8022068B357498A422AD14268564988
:10A990008A4214D001318A4223D1544BBBF1000FBB
:10A9A0004ED10022524918600193FFF78FFB019BA3
:10A9B0009B88022B14BF082304231D432FE014217E
:10A9C000614373180022725401F11002083158607B
:10A9D00032443144FFF77AFB45F002050134A4B25A
:10A9E0001DE000F580511A68013261D104339942AB
:10A9F000F9D13E4B1A682AB9022218609A804FF0AA
:10AA0000010B0AE0142363430221F218F154394B7D
:10AA100050605C8001341181A4B245F001050AF553
:10AA2000805ABAF5405FA6D1B9F1010F98BF002551
:10AA3000EDB2022D02D0062D10D0CDB90B2767E75D
:10AA400014226243B1184FF0020C06F802C0013420
:10AA50001A684A60A1F808C0A4B2A2E7012388F8E6
:10AA6000003003A80023C8F80430FFF753FA4FE77B
:10AA700002A8FFF709FBC8B10123013D03700A2DAD
:10AA800009D8DFE805F006080608070807080F11CF
:10AA90000F000023037102A9104800F07AF9FFF7B4
:10AAA0008BFE35E70323F5E70223F3E708272FE7BB
:10AAB00014236343F21809F1FF39506003221FFA8F
:10AAC00089F9F2548AE700BF783000201410001092
:10AAD0008C28002094340300C43000205031002022
:10AAE0009C300020DEC0ADDEFE011EF1643100208E
:10AAF000683100208030002073B50D460446C8B18F
:10AB0000C1B10DF10601FFF743FBA8B10B4BBDF836
:10AB100006006668142202FB003001210C3000F0B0
:10AB200010FA2E6063680C336B600123A37200205F
:10AB300002B070BD0520FBE70A20F9E79C30002039
:10AB400013B50446A8B10DF10601FFF721FB90B142
:10AB50000B4ABDF80630142101FB0323DA6862B109
:10AB6000A27A52B1DA680020013ADA60A07202B02B
:10AB700010BD0520FBE70A20F9E70620F7E700BF34
:10AB80009C30002002230022FFF724BE18B10323CB
:10AB90000022FFF71FBE05207047000037B50F4B9E
:10ABA0001B7805469BB1A0B101A8FFF76DFA90B1E3
:10ABB00004230024037004712B68C36001A90848B2
:10ABC00000F0E7F8FFF7F8FD204603B030BD0220A3
:10ABD000FBE70520F9E70820F7E700BF7830002001
:10ABE0005031002013B5104B1B780446ABB14FF623
:10ABF000FF73984213D001A8FFF746FA88B10523E6
:10AC0000037001230371C48001A9084800F0C1F852
:10AC1000FFF7D2FD002002B010BD0220FBE70420A8
:10AC2000F9E70820F7E700BF783000205031002016
:10AC300007B50E4B1B78A3B101A8FFF725FA90B119
:10AC40000623037001A90A4800F0A3F8094B1A78FB
:10AC50000AB101221A73FFF7AFFD002003B05DF8BF
:10AC600004FB0220FAE70820F8E700BF7830002054
:10AC7000503100208030002007B5ADF8060002A852
:10AC800020F8041D01460DF10600FFF7D7FA03B0C6
:10AC90005DF804FB13B502AC134624F8020D0A4616
:10ACA00000202146FFF7CAFA02B010BD13B502AC6E
:10ACB000134624F8020D0A4620460021FFF7BEFA8B
:10ACC00002B010BD20B119B103680B6000207047BD
:10ACD0000520704710B561B1B2FBF3F403FB1424F7
:10ACE000A4B244B9C0E9001484608281C3812046C3
:10ACF00010BD0E20FCE70920FAE782B050E8022FD1
:10AD0000C188B2EB324F4FF0000317BF92B241EA55
:10AD1000014142EA014104E04268B2EB324F08BF10
:10AD2000012340E80212002AE8D18DF807309DF88F
:10AD30000730002B0CBF1120002002B0704737B540
:10AD400050E8013F9DB2C48925448489A54228BFAB
:10AD50002D1B0489A54202BFBFF32F8F002207E0FD
:10AD6000C5EA030540E80154002CE9D14FF0010287
:10AD70008DF803200193019B9DF803200B6002F0E6
:10AD8000FF0322B10B880068184403B030BD184699
:10AD9000FBE70A884B889A4209D150E8012FC2EAA2
:10ADA000024240E80123002BF7D101207047002028
:10ADB000704737B550E8023F1FFAA3F5C488A54293
:10ADC00002BFBFF32F8F00220DE0C4892544848980
:10ADD000A54228BF2D1BC3EA054540E80254002CBC
:10ADE000E8D14FF001028DF803200193019B9DF8FB
:10ADF00003200B6002F0FF0322B14B880068184467
:10AE000003B030BD1846FBE70A884B889A4209D147
:10AE100050E8022FC2EA224240E80223002BF7D179
:10AE2000012070470020704701F01F024B090121EB
:10AE3000914000EB830000F063B84B0910B501F0BE
:10AE40001F040121A14000EB830000F04EF8E04018
:10AE500000F0010010BD01F01F0301229A404B09D0
:10AE600000EB8300D14300F056B84B0901F01F01FD
:10AE700050F82300C84000F0010070472DE9F0476A
:10AE80004E1E760980460F460136002558F82540AB
:10AE900008EB850AE44394FAA4F4B4FA84F44FEA84
:10AEA0004519202C06D10135AE42EFD83C4620464C
:10AEB000BDE8F0874C44A742F5D921464046FFF74C
:10AEC000BCFF0028F3D0DAF80040E44394FAA4F47D
:10AED000B4FA84F4E5E750E8002F0B4640E8003C64
:10AEE0009CF0000FF7D11046704750E8002F42EA5F
:10AEF000010340E8003C9CF0000FF6D1104670477B
:10AF000050E8003F43EA010240E8002C9CF0000FAB
:10AF1000F6D11046704750E8003F03EA010240E8CE
:10AF2000002C9CF0000FF6D11046704750E8002F1F
:10AF300002EB010340E8003C9CF0000FF6D1104604
:10AF4000704750E8003F03EB010240E8002C9CF002
:10AF5000000FF6D11046704750E8003FA3EB010206
:10AF600040E8002C9CF0000FF6D1104670470121FC
:10AF7000FFF7BBBF0B4620B11BB103601B68114636
:10AF800018470E2070472DE9F04108B302B3D0F8FE
:10AF900000E0BEF1000F1ED0FBB14768D7F8048077
:10AFA000B3FBF8F708FB1737BFB942EA010C1CF0F6
:10AFB000030F14D1C768B94211D34C1E05691C4454
:10AFC000AC420CD8DEF80C40A446BDE8F041604726
:10AFD0000E20BDE8F0810820FBE70920F9E71020EA
:10AFE000F7E7F0B5D8B1D0F800C0BCF1000F18D029
:10AFF000CAB14768D7F800E00EF1FF370F4214D10D
:10B00000C768B94211D34C1E05690EFB0244AC421D
:10B010000BD8DCF81040A446BDE8F04060470E2095
:10B02000F0BD0820FCE70920FAE71020F8E729DF47
:10B03000704728DF704770B50568AB6886B0044676
:10B040000E4673B114220021684607F073FDA36811
:10B0500005932379019633B1012B0ED0AB68684676
:10B06000984706B070BD01238DF800302369029324
:10B07000E368039363690493F0E702238DF80030DB
:10B08000E3681B030293F5E708467047002070470A
:10B09000024B187A003018BF012070471832002088
:10B0A000034B187A0122B0FA80F05A7440097047B5
:10B0B0001832002008B510461A4607F030FD00206F
:10B0C00008BD000008B514220021044807F032FD35
:10B0D0000348FFF712FE002008BD00BF1832002011
:10B0E0000832002010B5094C094B43602046FFF799
:10B0F0003EFF40B907F01EF91C2320748C2205493D
:10B100000548FFF7E7FD002010BD00BF1832002002
:10B11000883403007C3100200832002070B5244DB3
:10B12000244E2B7A2C463BB923492448FFF741FE95
:10B13000306008B9686070BD0223237233681A79E1
:10B1400072B1012A24D018460321FFF774FF0023AF
:10B150002372636018491948BDE87040FFF754BE78
:10B16000D3E90520121AB2F5805F28BF4FF4805250
:10B17000D3E903159208012A014438BF012228446B
:10B18000FFF755FF50B11128DDD101232372D2E71B
:10B19000D3E903021044FFF74CFFF3E7237C002BB5
:10B1A000C9D10146BDE87040022000F009B800BFD7
:10B1B00018320020303200202C32002008320020CB
:10B1C00038B5831E012B45D8234C237A002B41D060
:10B1D000022B09D1032830D0204B00221B68E260EB
:10B1E0001A793AB1012A22D0637C7BBBBDE8384092
:10B1F000FFF794BFD3E905128D1AB5F5805F94BFB0
:10B20000521902F580529A619142EDD102284FF015
:10B21000000308BF19462372104B18BF0D21186890
:10B22000FFF709FF0E490F48FFF7EEFDDCE71A694B
:10B2300001321A615B699A42E7E7E3680133082B40
:10B2400001D8E360D0E70023E360DFE7BDE83840E2
:10B2500007F060B838BD00BF18320020303200203F
:10B260002C3200200832002000F0FD03012B08D111
:10B27000044B00225A74421E504250411874FFF78A
:10B280004DBF70471832002010B5064C201DFFF747
:10B290006EFE28B9637C1BB9BDE81040FFF73EBFC6
:10B2A00010BD00BF183200202DE9F34180460D4645
:10B2B0000F4801A916461F46FFF741FD0446A8B1F5
:10B2C0001C22002107F036FC2D0B0123237101A95C
:10B2D000C4F80080A760E56066610548FFF759FD86
:10B2E000FFF7D2FF002002B0BDE8F0810420FAE7AA
:10B2F000083200202DE9F74381468846104801A90D
:10B3000017461E46FFF71BFD0446B0B11C22002164
:10B3100007F010FC00250A9BA36001A92571C4F861
:10B320000090C4E9037866610548FFF732FDFFF736
:10B33000ABFF284603B0BDE8F0830420FAE700BF66
:10B340000832002033DF704741DF7047064B10B5ED
:10B3500000241C70054B1C60BFF35F8F0449054837
:10B3600000F068F8204610BD3D3200204032002039
:10B37000B43403003432002008B506F0DBFF18B106
:10B38000BDE80840FFF7E0BF20BF40BF20BF08BDB9
:10B3900070B5224C054601212046FFF79CFDBFF306
:10B3A0005F8F264638B9042D0AD01D4B1A781AB182
:10B3B000BFF35F8F206070BD1A4A157001221A70AA
:10B3C000194C184D636828787BB90238012813D8C6
:10B3D000BFF34F8F1549164BCA6802F4E06213435E
:10B3E000CB60BFF34F8F00BFFDE71B68984788B164
:10B3F000204600F028F8E5E706F09CFF08B1FFF7CB
:10B40000A1FF4FF080430122C3F80025BFF34F8F07
:10B4100020BFFDE7BFF35F8F3060CCE740320020F4
:10B420003D3200203C3200203432002000ED00E0AC
:10B430000400FA0501600B6843604A68934204BF48
:10B44000002343607047436843B1026891680B442E
:10B4500043605268934204BF00234360704700007A
:10B4600037B50578012D04D03BD3022D2BD003B086
:10B4700030BD4368244C1978204600F016F990B18D
:10B48000224B01908DF800501B6868469847A168D0
:10B49000E368A2885B1A9A4211D301221C491D4815
:10B4A00000F0BCFEE3E7A268E3689A42EFD002AB8B
:10B4B000164A03F8080D126818469047E7E7164B3E
:10B4C00001221A70D3E7C36811491248019301227F
:10B4D0008DF8005000F0A2FE0C4B1B6868469847A0
:10B4E000C5E70E490E4800F0F2F828B901220B49D1
:10B4F000084800F03DFEBAE702A8032300F8083D23
:10B50000024B1B68EBE700BF4832002044320020AA
:10B510006C32002088250020583200206D32002037
:10B520005C320020F0B51F46244B89B006461A60F5
:10B530000C46002940D08A882148096800F0A6F806
:10B54000002837D1A289A1681E4800F09FF8002882
:10B5500030D11D4D0FCD6C460FC495E80F0084E827
:10B560000F0073690693337C184A19488DF81C70D4
:10B57000003318BF01238DF81430737C002B14BFE7
:10B580000E2300238DF81530F3680293B3680393FC
:10B590003368019369467368009300F0C7F848B9AF
:10B5A0000C4B18703368013304D001220A490B4850
:10B5B00000F034FE09B0F0BD0720FBE74432002064
:10B5C000483200205C320020C034030061B4020025
:10B5D00084250020583200206C320020882500206D
:10B5E00008B5054800F084F820B90448BDE80840D3
:10B5F00000F07EB808BD00BF483200205C32002059
:10B6000070B50A4C01460A48267800F060F80546F5
:10B610004EB10023012207490748237000F0FEFDC8
:10B6200008B1FEF759FB284670BD00BF5832002014
:10B63000483200206C3200208825002010B50146D9
:10B640000B4800F032F8044678B90A4800F0DAFDF9
:10B6500058B90949064800F03AF830B901220649BC
:10B660000448BDE8104000F083BD204610BD00BF77
:10B670005C320020882500206D32002008B5024889
:10B6800000F00EFD002008BD8825002049B152B110
:10B69000531E1A4007D1826001608380C260104649
:10B6A00070470E2070470920704710B58468C26843
:10B6B0008388121B934208D3C26813400268D15496
:10B6C000C3680133C360002010BD0420FCE782681A
:10B6D000C3689A420AD08268838813400268D35CA8
:10B6E0000B7083680133836000207047052070472A
:10B6F000C3688360002070471FB503788DF8003061
:10B700004368019383688DF80830C3680393054A42
:10B71000054B684653F8213052F82110984705B080
:10B720005DF804FB7032002074320020F0B506464C
:10B730000F4B16F8047B43F827200E4B94460A69FA
:10B7400043F827200C460FCC89B06D460FC594E80E
:10B750000F00BCF1000F85E80F00074A049708BFEF
:10B7600000226946304600F0DBFB09B0F0BD00BFA7
:10B770007432002070320020F9B6020007B5154B74
:10B780001A687AB100221A601B680093009B4FF080
:10B7900080430122C3F808230F4B587910B95A711E
:10B7A0001B6898470D4B1A6882B100221A601B680B
:10B7B0000193019B4FF080430222C3F80823064BFC
:10B7C0001B68012003B05DF804EB184703B05DF877
:10B7D00004FB00BF0001004078320020040100405B
:10B7E000014B1B68184700BF80320020014B1B68CB
:10B7F000184700BF88320020104B984273B50E46A0
:10B8000006D0A3F50433984216D0002002B070BDD4
:10B810000B4C02A8002300F8013DFEF741FB2579FF
:10B8200015B90123266023719DF80700FEF75CFB24
:10B83000002DEAD01120E9E7024CEAE7003002408F
:10B840008032002088320020074B984204D0A3F5B4
:10B850000433984205D07047044B00221A601A71D5
:10B860007047034BF9E700BF0030024080320020F0
:10B870008832002000F1804000F5E040002382B0D3
:10B88000036003680193019B02B07047F0B5514B10
:10B89000514C1B6885B0DBB14FF4827094F82E20B8
:10B8A000FFF7E8FF12B194F82F30A3B16368029359
:10B8B0002389ADF80C30E36800218DF80410002BCB
:10B8C00044D12374236801A89847002384F82F30BB
:10B8D00094F82E3003B3414B1B68EBB14FF48070EA
:10B8E000FFF7C8FF94F82D20638B91B28B4238D9B3
:10B8F0005B1A21899BB26383CB1A616801EB430118
:10B90000374BC3F82C16C3F830264FF48270FFF77C
:10B91000B1FF344B01221A60334B1B685BB14FF40B
:10B920008870FFF7A7FF002304A82374022300F800
:10B930000C3D236898472D4B1B6813B34FF48A7056
:10B94000FFF798FF0023237405B0F0BD208B6083C0
:10B9500063602081E160002AB4D1214B01221A608A
:10B96000B0E7D2D1E368012184F82F103BB1002168
:10B9700061831B49C1F82C36C1F83026C5E76383C3
:10B98000C3E766694FF000470125002EDCD0B6FA08
:10B9900086F227FA02F34632920026EA030602F103
:10B9A000804303F5E0431B68002BEED01046FFF701
:10B9B00061FFA2F58C72D30882F00402C2F3800208
:10B9C0008DF808308DF804508DF80920236801A8FF
:10B9D0009847DAE70471004090320020007100407F
:10B9E000007000400470004010710040147100406D
:10B9F00038B5204A92F82C300546002B37D111601B
:10BA00001D490078C1F8F0056878C1F8F405E878B8
:10BA1000137482F82D30536182F82F3001246FF0B7
:10BA2000004382F82E0082F82C404FF48270C1F857
:10BA30000833FFF71FFF4FF48070FFF71BFF4FF431
:10BA40008A70FFF717FFAB780C485B01DBB280F818
:10BA50000733802303600223C1F8043392F82E30A9
:10BA60000BB1C1F80443C1F80045002038BD0820DF
:10BA7000FCE700BF903200200070004000E100E0D1
:10BA800010B52C4B1A7C02F0FF04002A4FD10A7922
:10BA9000012A9CBF284AC2F8004500F10C0403EBC0
:10BAA0004402127922B993F82D20013283F82D2017
:10BAB00003EB4403CA791A710A7A5A714B788A786F
:10BAC0001B01120202F4E06203F0300313430A7810
:10BAD00002F003021343CA78120302F480521343A4
