:020000040002F8
:1060000000000120BD950200E5950200E795020021
:10601000E9950200EB950200ED95020000000000FA
:10602000000000000000000000000000EF950200EA
:10603000F195020000000000F3950200F5950200C2
:1060400045B30200F7950200B5B30200F7950200D0
:10605000F7950200F7950200F795020055B402008B
:10606000F7950200F7950200F7950200F7950200F8
:10607000F7950200F7950200F7950200F7950200E8
:10608000F795020075220300F7950200F7950200CC
:1060900031230300F79502000D200300F79502005D
:1060A000F7950200F7950200F7950200F7950200B8
:1060B000F7950200F79502000000000000000000C4
:1060C000F7950200F7950200F7950200A9B30200C8
:1060D000F7950200F7950200F79502000000000016
:1060E00000000000000000000000000000000000B0
:1060F00000000000000000000000000000000000A0
:10610000000000000000000000000000000000008F
:10611000000000000000000000000000000000007F
:10612000000000000000000000000000000000006F
:10613000000000000000000000000000000000005F
:10614000000000000000000000000000000000004F
:10615000000000000000000000000000000000003F
:10616000000000000000000000000000000000002F
:10617000000000000000000000000000000000001F
:10618000000000000000000000000000000000000F
:1061900000000000000000000000000000000000FF
:1061A00000000000000000000000000000000000EF
:1061B00000000000000000000000000000000000DF
:1061C00000000000000000000000000000000000CF
:1061D00000000000000000000000000000000000BF
:1061E00000000000000000000000000000000000AF
:1061F000000000000000000000000000000000009F
:1062000010B5054C237833B9044B13B10448AFF3F0
:1062100000800123237010BDE8280020000000004A
:106220008C32030008B5034B1BB103490348AFF39D
:10623000008008BD00000000EC2800208C32030024
:10624000154B002B08BF134B9D46A3F5803A002148
:106250008B460F461348144A121A0CF0BBFA0F4B28
:10626000002B00D098470E4B002B00D09847002001
:10627000002104000D000D48002802D00C48AFF3A7
:1062800000800CF069FA2000290005F0CDFE0CF02A
:106290004FFA00BF000008000000012000000000CD
:1062A00000000000E8280020AC3F002000000000B3
:1062B00000000000114870B506234FF0A04140F2E5
:1062C0000364012513F1FF3308D20D4910234FF069
:1062D000A0400C2413F1FF330AD270BD1A5C02F502
:1062E000E07605FA02F241F82640C1F80825E9E710
:1062F0005A5C02F5E07240F82240EBE7E23003001E
:10630000D23003002DE9F0472F4DDFF8C8E0DFF869
:10631000C880DFF8B890002101274FF0A042AC46BA
:1063200011F80E3007FA03F3C2F80C35242300BF2E
:10633000013BFCD11C46184610F808A0D2F81065A5
:1063400026FA0AF6F6075CBF07FA00F6344300F1B6
:10635000010058BFA4B21028EED135F81100A042B8
:106360001CBF052089F800004FF4007018BF25F805
:106370001140C2F808054FF48070C2F8080580206B
:10638000C2F808054020C2F8080501312020C2F8F3
:10639000080506294FF01000C2F80805C0D10B49C6
:1063A0000A7872B1013AD2B20A7042B9084A3CF88E
:1063B000131022F813100133062BF8D101E000F07E
:1063C0001DF90120BDE8F0871029002000250020DC
:1063D00004290020E2300300D2300300014B33F8DF
:1063E000100070470429002010B50D4C00214FF01B
:1063F000A0430222085D013100F5E070102943F846
:106400002020F7D1C3F82427C3F82027C3F81C277E
:10641000C3F81827C3F81427C3F8102710BD00BF0E
:10642000D230030070B5104E00224FF0A043032578
:106430000120915D013201F5E074102A00FA01F1AA
:1064400043F82450C3F80815F3D1084AC3F82427A9
:10645000C3F82027C3F81C27C3F81827C3F814274C
:10646000C3F8102770BD00BFD23003000400020043
:1064700013B50949684604F0C1FD019C14B92046D2
:1064800002B010BD2468E36898470028F7D1684639
:1064900004F0BDFDF1E700BFE830030010B5FFF7E1
:1064A000E7FF18B10368BDE81040184710BD70B58C
:1064B00004460D461646FFF7DBFF30B1436832460F
:1064C00029462046BDE87040184770BD064B1B7832
:1064D000024633B1054B1B781BB11C218020FFF70E
:1064E000E6BF08210020FAE71C29002072250020C1
:1064F000024605210120FFF7DABF07B502AA0221F3
:1065000022F8020D0846FFF7D2FF03B05DF804FB46
:1065100007B502AA022122F8020D0320FFF7C7FFE8
:1065200003B05DF804FB10B5FFF7A2FF18B1836854
:10653000BDE810401847012010BD0000014803F0DD
:10654000AFB900BF1405EDFE10B504460A480CF0C3
:10655000CDF808B103F0A4F9002C40F233314FF02C
:10656000000208BF522104480CF07CF818B1BDE8C5
:10657000104003F095B910BD4029002010B5064C1D
:1065800000F0C8FE2268904202D80020FFF7DCFF2E
:106590000023236010BD00BF8029002010B505F046
:1065A000DBF90F4B0F4C1B7813B1236801332360C9
:1065B00000F0B0FE2368984208D10120FFF7C4FF25
:1065C00000210A20BDE8104000F048BE00F0B0FEF7
:1065D00023689842F4D1012005F00EFDF0E700BFDA
:1065E000182500208029002001F00CBC82B002ABED
:1065F00003E9030002B0FFF7C1BF000008B50022A5
:10660000082104480CF02EF818B1BDE8084003F04A
:1066100047B908BD2029002008B5002252210948A9
:106620000CF020F808B103F03BF900224FF40051C0
:1066300005480CF017F818B1BDE8084003F030B970
:1066400008BD00BF4029002060290020044B1A78B3
:10665000824203D0187008B9FFF790BF704700BF9F
:106660001825002007B501F0C3FB00F0F7F801F092
:10667000A7F801F0BFFB1A4801F07CFB194A1A4841
:1066800001210BF0DDFF08B103F00AF9154A1748A4
:1066900000210BF0D5FF08B103F002F9144A1548A8
:1066A00001210BF0CDFF08B103F0FAF801F050FA28
:1066B000114A92E803006B4683E803000F4918462D
:1066C00005F024F908B103F0EBF80D4805F05AF98C
:1066D00008B103F0E5F805F033F903B05DF804FB09
:1066E00004250020E965020000310300FC300300AE
:1066F0009D65020004310300F43003003D65020093
:106700008C3E0020704708B50CF00CF8C00808BD9E
:1067100008B5FFF7F8FF4FF6FF73B0FBF3F318442B
:1067200080B208BD10B50446FFF7F2FF001B80B22F
:1067300010BD3CDF704708B5B1210020FFF7F9FF1D
:106740000220BDE8084004F007BC10B5044600F084
:1067500071F821460B20BDE8104000F0D9BD0000C3
:106760002DE9F843837880460F46154613B179B179
:10677000012924D0184E194CA41BA4084FF000097D
:106780005FFA89F39C4209F101091DD8BDE8F8833D
:10679000012A0BD006D3022A0ED00F2AEAD1FFF726
:1067A000CAFFE7E7022005F027FCE3E70C4A13786D
:1067B00083F001031370DDE706F0C6F9DAE7002A7B
:1067C000D8D101F035F8D5E756F823302A463946B6
:1067D00040469847D4E700BFE0280020E02800208A
:1067E000722500204FF0A04310F0010F4FF48002FB
:1067F0000CBFC3F80C25C3F808254FF0A04310F0D8
:10680000020F4FF400020CBFC3F80C25C3F8082593
:106810007047000009280AD1022902D0032903D0B9
:1068200070470020FFF7DEBF014B1878FAE770478A
:106830008429002008B5044B1870FFF7D3FFBDE88A
:10684000084001F0A9B900BF842900204FF0A043FF
:106850000222C3F85827C3F85C2770474FF0A043C3
:106860000322C3F85827C3F85C27704770B51C4C47
:106870002278052A23D80D466B1ADBB2984210D92C
:1068800015F8013BA3F11E06092E19D8511C2170E1
:106890001D3B0A2093FBF0F100FB1133114930330B
:1068A0008B540121022000F033FD2378062B06D102
:1068B0000C480023837105F0F9FDFF23237070BDA0
:1068C000A3F15906092E03D8511C2170583BE0E76B
:1068D0002A2BD1D1002ACFD0013A2270E1E700BFA4
:1068E000192500208D3E0020014B00221A707047B0
:1068F0001925002041DF704728DF70470649002234
:10690000535C33B90132B2F5407FF9D1034A1370B9
:1069100070470123FAE700BFFC2900204025002032
:1069200013B55F28ADF8041017D89DF804200F2A7E
:1069300013D89DF8051005290FD8094B1C7806239C
:106940003CB113FB0010074B03EB0010805C02B05E
:1069500010BD03FB0010044BF6E70020F7E700BF73
:1069600040250020FC29002012300300094B1B7831
:1069700053B100F14003084A5B00DBB2D118D05C90
:10698000497800EB01207047044BC03833F8100001
:10699000704700BF40250020A42900200C300300D0
:1069A00030B5807858B10D4849B10023C25C5C1CF9
:1069B000A4B22AB9013911F0FF0101D1204430BD40
:1069C000551E012D02D9743A012A05D802339BB213
:1069D000FF2BEBD90020F2E72346F9E7082D002032
:1069E00010B5094A094910780B6818B9084C246891
:1069F0009C4207D00133052BA8BF00230B6008B1D0
:106A00000023137010BD00BFF4290020F8290020D6
:106A1000F02900207FB501AC84E807000F4E104A32
:106A200033680C2505FB032594E80700013385E84E
:106A30000700052293FBF2F202EB82029B1A094A3D
:106A400033601078084910B10B6004B070BD09685C
:106A50008B4204BF01231370F7E700BFF029002029
:106A6000943E0020F4290020F829002030B50C467F
:106A700085B001460546204603F06CFE07280ED17E
:106A800003F0BAFECDE9015400238DF80C3004ABBD
:106A900013E9070005B0BDE83040FFF7BBBF05B004
:106AA00030BD30B5002389B004460D46CDE9013331
:106AB000CDE903330A4601AB4188008803F0C0FEEC
:106AC000D0B903A9284603F0FBFD039B5A88A368AD
:106AD0009A4209D19200049960680BF070FE284632
:106AE00003F012FE09B030BD284603F00DFE294622
:106AF0002046FFF7BBFFF5E72146284603F026FEB8
:106B000007280BD103F078FECDE9054501238DF868
:106B10001C3008AB13E90700FFF77CFFA268606830
:106B2000920000210BF056FEDCE70000064B1B78BC
:106B30003BB9064B1868064B1B68C31A58425841AC
:106B400070470020704700BFF4290020F029002082
:106B5000F829002008B5FFF7E9FF30B9044B1868A1
:106B6000044B0C2202FB003008BD0020FCE700BFF4
:106B7000F8290020943E002010B50446E00705D512
:106B80000D490E48FFF78DFFFFF7B8FEA10703D5AB
:106B90000B490C48FFF785FF620703D50A490B48EC
:106BA000FFF77FFF230705D509490A48BDE81040D4
:106BB000FFF777BF10BD00BFFC2C0020342500205C
:106BC000E429002028250020082E0020442500204C
:106BD000982900201C25002010B50446E00702D5A6
:106BE0000A4803F0BFFDA10702D5094803F0BAFD2A
:106BF000620702D5074803F0B5FD230704D5064810
:106C0000BDE8104003F0AEBD10BD00BFFC2C00205D
:106C1000E4290020082E002098290020F8B5154806
:106C200003F032FC03F046FC08B102F039FE124AD0
:106C3000137873B11148124A124F0023121AD20866
:106C400019461E469A4207D1FF20BDE8F840FFF7DB
:106C500093BFFFF74FFEEBE710F833400C44102CC6
:106C600000EBC305DBBFC91969606E60E1B2013397
:106C7000E8E700BFDD6D0200142E0020B0280020E0
:106C8000C82800208829002010B50446E00703D555
:106C90000B490C48FFF7EAFEA10703D50A490B4848
:106CA000FFF7E4FE620703D509490A48FFF7DEFE55
:106CB000230703D508490948FFF7D8FE012010BD76
:106CC000FC2C002034250020E42900202825002069
:106CD000082E002044250020982900201C25002093
:106CE00038B51446032819D8DFE800F0141A021149
:106CF0000D484FF480726518AA42BCBF521A94B274
:106D00000144224618460BF05AFD204638BD07487C
:106D10001022F0E706484FF44072ECE70024F4E755
:106D200004484022E7E700BF082D00208829002002
:106D3000FC290020A429002070B505460E46144603
:106D4000032818D8DFE800F01C1902140E484FF48D
:106D50008072A1198A4201DA921B94B22246194626
:106D600030440BF02CFD0DB9FFF7C8FD204670BD77
:106D700006481022EDE70024F8E705484022E8E73E
:106D800004484FF44072E4E7082D002088290020D1
:106D9000A4290020FC29002008B540F6F8731B68E0
:106DA0005A1C08BF0C4B4FF0805208BF1B6811697A
:106DB00050691269B3F1FF3F08BF00FB01F3B3FB59
:106DC000F2F3581EFFF798FD981EFFF795FDD81EA9
:106DD000BDE80840FFF790BD1410001008B5037817
:106DE00013B1052B0CD008BD43681BB9164B01220B
:106DF0001A70F8E70B2BF6D1BDE80840FFF7CCBFBF
:106E00004368002BEFD1FFF791FE0028EBD1FFF78D
:106E1000A1FE037A23B1012B0ED0FFF7E1FDF2E7CB
:106E2000D0E9001003F096FC0028F6D0072808D11E
:106E3000BDE8084003F0E0BCD0E9001003F086FC98
:106E4000F2E70828DFD1CEE7142E002010B590B06D
:106E50000023024604468DF801000DF102008DF872
:106E600000300BF0ACFCA01C6946C0B200F084FC02
:106E700010B010BD00B58FB06B463822FFF730FF61
:106E80006946C0B2FFF7E2FF0FB05DF804FB07B53B
:106E900002A901F8010D012000F06EFC03B05DF8BD
:106EA00004FB10B51C4613462246FFF745FFA042DF
:106EB00034BF04200020BDE81040FFF7E8BF000009
:106EC000F0B5203887B00C4615461F2800F20E8119
:106ED000DFE810F0200039004D005B0067006C0017
:106EE0000C0183000C010C010C010C010C010C01C4
:106EF0000C010C010C018B00A600B900C200CB00F4
:106F00000C01EB000C010C010C010C010C01F50053
:106F1000FC00030119B10220FFF7B9FF3FE0744BF9
:106F200001AA03F11006154618685968144603C4EF
:106F30000833B3422246F7D11B882380294612200A
:106F4000FFF784FF2BE00329E5D15378107892787E
:106F50008DF801308DF800200099FFF7E1FC002347
:106F60008DF804008DF8053001A90220E8E7012919
:106F7000D1D1117801AB022249002046FFF7B0FEC3
:106F8000C0B20228C7D101A9DAE70229C3D15378D8
:106F9000117801EB032189B20020FFF76BFF07B0E6
:106FA000F0BD0129B7D111782046F6E70129B2D109
:106FB0001578504B504A9B1ADB080020C1B28B4217
:106FC000A9D902EBC10412F83110A94200F1010065
:106FD000F4D1636859681878B2E702299BD15378D5
:106FE000117801EB032189B2DEE7052993D11279EB
:106FF000EB78287803EB02236A78062111FB002244
:10700000A9789BB201EB02118DF804301B0A8DF8B0
:10701000053001AA012389B20020FFF742FFBEE735
:1070200003297FF478AF11786B78927803EB022311
:107030009BB28DF804301B0A8DF8053001AA02239B
:1070400049000120E9E74B1E1178C1EBC101C900DD
:1070500089B2DBB20132DFE74B1E1178C1EBC1010F
:10706000C90089B2DBB20132EBE71778214B4A1E27
:1070700021495B1AD2B2DB080024E0B29842BFF487
:107080004AAF01EBC00611F83000B84204F1010428
:10709000F3D173681978914205D1691C58680BF0D7
:1070A0008EFB002038E7042036E74B1E1178C1EB39
:1070B000C101C90089B2DBB201320220ADE701296A
:1070C0007FF429AF1078FFF757FDEAE701297FF435
:1070D00022AF1078FFF7D8FDE3E701297FF41BAF5B
:1070E00014782046FFF778FD2046ECE7012013E7EF
:1070F00008310300E0280020C82800203CDF70474A
:107100003DDF70473EDF704707B5024601A900200A
:10711000FFF7F8FF019B72B143F002034FF0FF311C
:1071200000200193FFF7ECFF01990020FFF7E6FF35
:1071300003B05DF804FB23F00203EFE72DE9F04113
:10714000084E094CA41B07468846A4080025A54202
:1071500001DBBDE8F08156F82530414638469847B6
:107160000135F4E7A4280020AC28002010B5094A16
:10717000094910780B6818B9084C24689C4207D05C
:107180000133142BA8BF00230B6008B10023137038
:1071900010BD00BF1C2E0020202E0020182E002025
:1071A00037B56C4684E803000E4D0F4A2B6894E80F
:1071B000030002EBC30282E803005A1C142192FB75
:1071C000F1F301FB1323094A2B601078084910B131
:1071D0000B6003B030BD09688B4204BF01231370FC
:1071E000F7E700BF182E0020D43E00201C2E002000
:1071F000202E0020064B1B783BB9064B1868064B27
:107200001B68C31A5842584170470020704700BF9E
:107210001C2E0020182E0020202E002008B5FFF77D
:10722000E9FF28B9034B04481B6800EBC30008BD05
:107230000020FCE7202E0020D43E002010B5FFF7F0
:10724000D9FF00B110BDFFF7E9FF0446FFF78EFF3D
:1072500061682078FFF772FFF1E7000073B504461C
:10726000631E0D46C8B2072B0AD8DFE803F02E399B
:107270000904091E093E431E58425841FFF744FFC6
:107280002946204605F08EFB002C3AD0052C2FD144
:10729000022D2FD18DF80040019502AB13E90300B8
:1072A00002B0BDE87040FFF77BBF0028164E13BF49
:1072B0000123002301200020337000F081FC30788E
:1072C00080F00100FFF7C2F9DAE70028D8D10E4BB1
:1072D0001B7813B105F0C2F8D2E704F08DFECFE7BA
:1072E0000028CDD1FFF700FBCAE7084B1870C7E7AD
:1072F000042CCFD12946204602B0BDE87040FFF7EC
:107300001DBF02B070BD00BFD03E00201C29002070
:10731000FFF7A4BF054B5B685A78187800EB022092
:1073200080B2002808BF0F20704700BFB02800209F
:10733000054BDB685A78187800EB022080B20028F1
:1073400008BF4FF461607047B0280020054B5B69AF
:107350005A78187800EB022080B2002808BF3C2041
:10736000704700BFB0280020034B1888034B1B88D0
:10737000C31A5842584170470E3000200C3000208C
:10738000064B5A79022A07D1587810B1987880F0C4
:10739000010000F0010070470020FAE7A62E00204F
:1073A000014B1878704700BF743F002000B58BB0C8
:1073B00000231B22CDE9063308931A23CDE90423C9
:1073C0000B4B0C4A09930C4B00934023CDE902234D
:1073D00001930A4A0623694604A803F087FE08B110
:1073E00002F05EFA064B01225A710BB05DF804FB05
:1073F00000E0D701AC2E0020662E0020957402001C
:10740000A62E002010B5022808BF074B044614BF63
:10741000002119790820FFF77BFF21460720BDE8EE
:107420001040FFF775BF00BFA62E002008B5FFF77C
:107430009BFF38B9044A054B11885B5C0B44013350
:10744000DBB2138008BD00BF0C3000200C2F0020E1
:10745000F8B50E4B0E491B88CD5CEA18FF2A07468B
:1074600010DDDC43E4B22E1BF6B224B10133224618
:1074700019440BF0A4F90649324638190BF09FF96C
:107480002846F8BD01332A461944F7E70C3000209E
:107490000C2F00202DE9F04F037893B0042B0BD86C
:1074A000DFE803F003B5B00A03005A4E5A4F0DF15E
:1074B000070003F089FE10B113B0BDE8F08F3278F9
:1074C0009DF80730BB54002A77D11A0608D57E3BB9
:1074D000DBB2524A022B1370E9D001233370E6E786
:1074E0001F2B04D94E4A03F01F031370DFE70F2B45
:1074F000DDD94C4D03F0010903F0020BC3F3400A40
:1075000003F00401C3F3800203F00808C3F3C004CE
:107510006B79012B02D06B78934209D06A700029F5
:1075200047D0AB78002B14BF03200220FFF76AFF7F
:107530006B79012B02D02B78534509D0BBF1000F9A
:1075400014BF02210121062085F800A0FFF7E0FE0C
:107550006B79012B02D02B79A34209D02C71B8F1A1
:10756000000F28D0FFF70CFFC1B20820FFF7D0FEB4
:107570006B79012B04BF02236B71B9F1000F01D0AD
:10758000FFF754FFFFF7F0FE044678B90DF1080845
:107590004046FFF75DFF8146E3B2994506D918F8EA
:1075A000040003F02FFE01340028F5D00123EB7016
:1075B0007DE70120BAE74046D6E7184C0132217832
:1075C000D2B28A423270FFF472AF4A1E3070D2B229
:1075D000034690420DDB7A1812F8012C9A420DD125
:1075E0000439114A7878C9B2FFF76AFC0023237086
:1075F0005DE73D5C2B44DBB20130EAE70520FFF795
:1076000046FCF3E703F01EFEFFF7D0FE54E703F05D
:10761000CBFD51E7642E0020242E0020652E002093
:10762000743F0020A62E0020272E00202DE9F84FC1
:107630001C4FDFF878B03C8804F1010A0AEB000621
:10764000B6B2054688465FFA86F9BBF800309C4220
:1076500001D2B3421ED99C4203D9FF2E01D94B451A
:1076600018D91148B6F5807F055516D9E443E4B220
:107670002D1BEDB224B12246414650440BF09FF839
:1076800009482A4608EB04010BF099F8A7F8009086
:10769000BDE8F88FFFF7CAFED7E72A4641465044B7
:1076A000F2E700BF0E3000200C2F00200C3000202D
:1076B00010B50C463D2C90B011461DD804F1400386
:1076C0008DF8010022460DF102008DF800300BF01C
:1076D00076F80020A31C01461DF801200131024468
:1076E0008B42D0B2F8DC10A90B44E01C6946C0B252
:1076F00003F8402CFFF79AFF10B010BD024A002398
:107700001380024A138070470E3000200C30002096
:1077100010B5FFF7F3FF03F095FD4FF0A0430422EF
:107720000024C3F86C27084B20465C719C705C7089
:10773000FFF768FE21460620FFF7EAFD21460820F4
:10774000BDE81040FFF7E4BDA62E0020094B5A7992
:1077500032B1DA780AB9FFF7DBBF0022DA7070477E
:107760004FF0A043D3F810351B0101D5FFF71EBE23
:10777000704700BFA62E002010B53E2890B00446EA
:107780001BD8A0F1800302460DF101008DF80030F6
:107790000BF015F80020631C01461DF80120013193
:1077A00002448B42D0B2F8DC10A90B44A01C6946FD
:1077B000C0B203F8402CFFF739FF10B010BD000035
:1077C00008B50B4A0B4801210AF03AFF08B102F054
:1077D00067F84FF0A0430422C3F86C27D3F81035A4
:1077E0001B0103D5BDE80840FFF7E0BD08BD00BFA1
:1077F0004D7702001C31030008B500224FF40061F0
:1078000004480AF02FFF18B1BDE8084002F048B85C
:1078100008BD00BFEC2E002008B5FFF779FF4FF040
:10782000A043024AC3F86C2708BD00BF0400020051
:10783000084A5379022B0BD153784BB1937883F0DC
:107840000103002B14BF032002209370FFF7DABD61
:10785000704700BFA62E0020014B1878704700BF6C
:10786000983F0020034B18884FF6FF73C01A18BFCB
:107870000120704796250020030670B504460E4689
:1078800015460BD418B9911C1A20FEF7EFFF2A46B3
:1078900031462046BDE8704004F0B4BF70BD000022
:1078A00010B5094A094910780B6818B9084C2468C2
:1078B0009C4207D00133052BA8BF00230B6008B101
:1078C0000023137010BD00BF3C300020403000206A
:1078D000383000200C490D4A0B6842F82300013370
:1078E000052293FBF2F202EB82029B1A084A0B601C
:1078F0001078084908B10B60704709688B4204BFD3
:1079000001231370704700BF38300020783F0020FB
:107910003C30002040300020064B1B783BB9064B22
:107920001868064B1B68C31A58425841704700201C
:10793000704700BF3C30002038300020403000202D
:1079400008B5FFF7E9FF28B9034B04481B6800EBB3
:10795000830008BD0020FCE740300020783F002075
:10796000F8B54F4A1378174613B1013B1370F8BDB1
:107970004C4A13781646002BF7D14B4C23689BB921
:10798000FFF7CAFF60B1494C2278002AEFD048487F
:107990000AF0ACFE08B101F083FF00232370E6E794
:1079A000FFF7CEFF03682360FEF7BDFD0028DED0A1
:1079B00023681D78752D54D020D8022D38D015D8C5
:1079C000002D62D0012DD2D158785A1C00F120032D
:1079D000DBB2072B22600ED800F0070005FA00F09A
:1079E000C0B201F0CFFA01F0FFFA1EE0042DBED3C1
:1079F000732D2ED8284600F0AEFA16E0782D39D037
:107A000008D8762D31D0772DB1D12A4B187801F0D6
:107A1000ADFAE8E7802D30D0A9D3A5F184036F2B10
:107A2000A5D805F07F0000F068FB2368013313E060
:107A300058785A1C00F12003DBB2072B2260F2D8E1
:107A4000012300F0070003FA00F0C0B201F0A2FA2F
:107A5000C9E75A783A7002332360174B1B783370AA
:107A600085E7154A59781170F5E701F069FA114B6D
:107A70001870DAE701F080FAB5E7FFF761FF0368F5
:107A800023600E4B01221A70E7E7FFF709FF0B4B4B
:107A900025601D70084B05221A70064B1D70DCE72F
:107AA00034300020353000201030002046300020D7
:107AB0001430002045300020702500204430002084
:107AC000034A00231360034A1360034A137070478C
:107AD00038300020403000203C30002008B5FFF74F
:107AE000EFFF054A00231360044A1370044A137021
:107AF000044B05221A7008BD1030002044300020CD
:107B0000343000207025002010B50E4B1B78024643
:107B100043B1FFF715FF0368934211D1BDE8104050
:107B2000FFF7DCBF084CFFF7D5FE227842B90821E9
:107B300006480AF097FD08B101F0B2FE0123237058
:107B400010BD00BF4430002046300020143000201B
:107B500008B5054A054801210AF072FD18B1BDE8D3
:107B6000084001F09DBE08BD61790200203103008C
:107B70000A280CD1064B1B784BB1064A136833B167
:107B8000013B13601BB902210920FFF7C1BB7047FD
:107B9000712500204830002010B5074B1B784BB1F1
:107BA000064C22681AB903210920FFF7B1FBFFF741
:107BB000CDFB206010BD00BF7125002048300020A3
:107BC00010B50B4B1A6804460AB100221A60094B23
:107BD0001C7044B1FFF7E0FF84F001010920BDE80B
:107BE0001040FFF795BB03210920FFF791FBF3E756
:107BF0004830002071250020F0B5054685B01022E0
:107C0000002168460AF0E6FD2B7843BB1C4E1D4C54
:107C10006868A41BA408A1B203F074FD08B101F0C8
:107C20003FFE0022D3B2A34211DA04A901EB4300C4
:107C300009E0696830F8107C31F8131023443944A6
:107C400020F8101CDBB29C42F3D80132EAE7002591
:107C5000A54206DB03F028FE0B4B00221A7005B08C
:107C6000F0BD56F82570BB683BB1FA890A2A04D8E2
:107C70003DF915009847BB89FB810135E8E700BF56
:107C8000AC280020B0280020AC300020F8B5234EEE
:107C9000234C0025A41BA4082A46A54223DB002A66
:107CA0003AD0204F3A78D2B91F49204803F084FCDB
:107CB00008B101F0F5FD0025AC4222DCA4B221465A
:107CC0001B4803F01FFD08B101F0EAFD21461948E9
:107CD00003F018FD08B101F0E3FD01233B70BDE89E
:107CE000F84003F063BD56F82510CB890A2B04D861
:107CF0004B6803B19847012201E00A3BCB81013573
:107D0000CBE756F82530E8B2196803F09DFC08B1BE
:107D100001F0C6FD0135CFE7F8BD00BFAC2800205B
:107D2000B0280020AC300020F97B0200283103008D
:107D30006C3000208C30002008B50022522104480D
:107D40000AF090FC18B1BDE8084001F0A9BD08BDDB
:107D50004C30002008B5054A054801210AF070FCA6
:107D600018B1BDE8084001F09BBD08BD8D7C020044
:107D700024310300014B1860704700BFB030002071
:107D8000024B186808B1036818477047B0300020EC
:107D9000024B1B680BB15B6818477047B03000207E
:107DA000024B1B680BB19B6818477047B03000202E
:107DB000054B1988814205D01880044B1B680BB114
:107DC000DB681847704700BFB6300020B030002095
:107DD000054B1988814205D01880044B1B680BB1F4
:107DE0001B691847704700BFB4300020B030002036
:107DF00000F07CB808B5FEF785FCBDE80840FEF74A
:107E000059BA00002DE9F74FFEF77CFA324F0026F1
:107E1000E8465FFA86FA5046FEF7E0FA37F8029F26
:107E2000814583462ED02D4B1A78930701D500F05B
:107E30005EF80025012489EA0B0914EA090F1BD01A
:107E40001BEA040F14BF012200228DF802208DF8D6
:107E500000508DF801A0FEF75BFC40F00100ADF88A
:107E6000040098E8030000F051F898E80300FEF7DA
:107E7000BDFB3A8862403A800135EDB26400102DB6
:107E8000A4B2DAD10136062EC3D14FF6FF73ADF896
:107E9000003000238DF80230FEF73AFC40F001007C
:107EA00002ABADF8040013E903000D4C00F02EF80E
:107EB00001F0C0F801F0E4FAFFF762FF2378834293
:107EC00007D0FFF75DFF207003B0BDE8F04F01F071
:107ED000B4B803B0BDE8F08FB83000209A3100206C
:107EE000B830002008B5FEF730FC08BD7047704779
:107EF00038B5054D044645F001054FF47A40A847D2
:107F0000013CFAD138BD00BF3031030010B586B056
:107F10006C4684E80300BDF80430BDF80020ADF8DD
:107F20000C2043B192B24FF6FF739A4203D094E80B
:107F30000300FEF75BFB0023ADF8163094E8030066
:107F400006AB0490ADF8141013E9030006B0BDE8C9
:107F5000104000F0B5BD08B5002800F0CD808228A3
:107F600013D1FFF70DFF810700F1C680392000F023
:107F7000CBFE01F039F86420FFF7BAFF392000F09A
:107F800069FFBDE8084001F02FB883280ED1FFF744
:107F9000F7FEC20700F1B080532000F0B5FE01F0FB
:107FA00023F86420FFF7A4FF5320E8E784280ED1CC
:107FB000FFF7E6FE430700F19F80472000F0A4FE94
:107FC00001F012F86420FFF793FF4720D7E7021F64
:107FD000D2B2A02A02D800F097FED2E700F1200228
:107FE000D2B2072A07D800F0070301209840C0B298
:107FF00000F0ACFFC5E700F15B02D2B2022A0BD859
:10800000A52807D0A6280CBF82208320BDE8084001
:10801000FFF7CEBE8120F9E700F15802D2B2162A4E
:108020006AD8A82831D0A92831D0AA2831D0AB28C5
:1080300031D0AC2831D0AD2831D0AE2831D0AF28E6
:1080400031D0B12831D0B02831D0B22831D0B328C6
:1080500032D0B42833D0B52834D0B62835D0B7289C
:1080600036D0B82837D0B92838D0BA2839D0BB286C
:108070003AD0BC283BD0BD283CD0BE280CBF7020D5
:108080000020BDE80840FFF7A3BEE220F9E7E920A1
:10809000F7E7EA20F5E7B520F3E7B620F1E7B320EC
:1080A000EFE7B420EDE7B720EBE7CC20E9E7CD2000
:1080B000E7E740F28310E4E74FF4C570E1E74FF4DF
:1080C000C970DEE74FF4CA70DBE740F22120D8E741
:1080D00040F22320D5E74FF40970D2E740F2252083
:1080E000CFE740F22620CCE740F22720C9E740F254
:1080F0002A20C6E76F20C4E708BD08B5034600285C
:1081000058D0822812D1FFF73BFE810752D5392083
:1081100000F0FAFD00F068FF6420FFF7E9FE392067
:1081200000F098FEBDE8084000F05EBF83280DD146
:10813000FFF726FEC2073DD5532000F0E5FD00F015
:1081400053FF6420FFF7D4FE5320E9E784280DD1C4
:10815000FFF716FE43072DD5472000F0D5FD00F0B0
:1081600043FF6420FFF7C4FE4720D9E7021FD2B2C5
:10817000A02AD5D900F12002D2B2072A07D800F0F0
:10818000070301209840C0B200F0E8FECAE700F102
:108190005B02D2B2022A04D80020BDE80840FFF7F3
:1081A00007BE5833DBB2162B04D80020BDE80840C8
:1081B000FFF70EBE08BD08B528B100F0C7FEBDE848
:1081C000084000F011BF08BD08B528B100F0C6FE98
:1081D000BDE8084000F008BF08BD08B500F0E2FEA9
:1081E00000F0A2FE00F000FF01F0D8F901F03AF92A
:1081F0000020FFF7DDFD0020BDE80840FFF7E8BDE7
:1082000008B500F0B9FEBDE80840FFF7E6BF2DE96C
:10821000FF41804600F013FF002840F0888098F866
:108220000670B8F80420D8F80000029002AB98F865
:108230000250ADF804003F09002A78D080B24FF612
:10824000FF71884273D0ADF80C208DF80A5093E886
:10825000030000F003FD044600F0FEFC00F0A2FC69
:10826000C4F303330F2B62D8DFE813F010001000C3
:10827000320032007B00940061006100A0006100C8
:1082800004010401630161006E017F01C4F307234F
:10829000C4F3032613F0F00F18BF3601E4B25DB14A
:1082A00026B1304600F06EFE00F09EFE204604B07F
:1082B000BDE8F041FFF74FBE2046FFF71EFFB6B303
:1082C000304600F067FE04B0BDE8F04100F08CBE1F
:1082D000C4F3072303F0F003C4F30326202BE0B21A
:1082E00018BF360168B1012824D09DB33FB198F87A
:1082F0000630D907DBD56FF3071388F80630304610
:1083000002E06DB1304627B904B0BDE8F041FFF797
:1083100052BF012FF8D104B0BDE8F04100F048BED3
:108320001FB900F04BFE30460CE0012FF9D104B02C
:10833000BDE8F0815DB1052FF9D800F001FE3042B3
:108340003046E1D004B0BDE8F041FFF73DBF042F57
:10835000EDD8E8E7002FE6D004B0BDE8F041FFF724
:10836000CCBEC4F381234BB1012BE0D185B1C4F362
:10837000090004B0BDE8F041FFF72ABD35B1C4F3F0
:10838000090004B0BDE8F041FFF712BD2846F8E748
:108390002846EEE7E0B235B100F072FF04B0BDE868
:1083A000F04101F05FB800F0D5FFF7E714F4407F2B
:1083B0002CD1002DBBD1C4F34210E2064FEA80035A
:1083C00004F00F0000FA03F644BF0F209840C4F3F6
:1083D00081244CBFC0432846022C09D00ED8012C62
:1083E00040EA06000DD004B0BDE8F04100F0E4BB67
:1083F000304304B0BDE8F04100F0E6BB00F0DCFB28
:10840000304604B0BDE8F04100F0CEBBC4F3012219
:10841000D3B2FDB102F00103002B88D0C4F34210A7
:10842000830004F00F0000FA03F514F010001CBFE5
:108430000F209840C4F3812418BFC043022C0BD0F6
:1084400010D8012C40EA05000FD004B0BDE8F0417F
:1084500000F0F2BB5B08DFE7284304B0BDE8F04161
:1084600000F0F2BB00F0E8FB284604B0BDE8F041A4
:1084700000F0DABBE6B2F02E2FD009D8A6F1C00387
:108480001F2B13D9002D4ED0002F49D030460EE7B8
:10849000F22E37D02ED3F32EF4D1002D3BD0C4F3DF
:1084A000042004B0BDE8F04100F099BBC4F30420FF
:1084B00006F0100745B100F097FB17B13601F0B296
:1084C00022E706F00F001FE700F098FB17B1360116
:1084D000F0B237E706F00F0034E74DB1042F3FF656
:1084E00026AFC4F3042004B0BDE8F04100F092BB15
:1084F000052FF4E7C4F3042045B104B0BDE8F04112
:1085000000F072BBC4F30420002DF6D004B0BDE827
:10851000F04100F073BB04B0BDE8F04100F05CBB7B
:10852000C4F30420E9E70FB1304615E7C4F3042093
:10853000ECE7C4F30322E1B24046FEF731FA04B09F
:10854000BDE8F041FFF7E0BA14F0FF0F7FF4EFAEA3
:10855000002D3FF4ECAEFFF753FE3220FFF7C8FCCE
:1085600004B0BDE8F041FEF7E6B8C4F30322E1B27F
:10857000404604B0BDE8F041FEF7F2B81FB56B46C7
:1085800083E80300BDF80420BDF80010ADF80C101E
:108590001AB9002005B05DF804FBBDF80C104FF6C9
:1085A000FF729142F5D093E8030000F057FB0123DE
:1085B000C0F30332934013F4104F1CD113F4406FF7
:1085C000C0B208D113F00C0FE3D0A4280CD80428B3
:1085D00008D2012806D9E7280AD8E02802D20438B0
:1085E000A028D6D80120D5E7A0F1E003072BF1E7BA
:1085F000F028CED1F6E7C0F3C020CBE782B002ABC3
:1086000003E9030002B0704782B002AB03E9030044
:1086100002B0704770B5094B094E1C78094D33788C
:10862000A34200D170BD05EBC40355F8340059686E
:108630000134FFF7E9FF04F00704F0E70F310020F1
:108640000E310020CE300020024B18685968FFF729
:10865000DBBF00BFC6300020F7B5224B9A7912F07D
:10866000F00F0AD19A7842B11F4A204F1278204E5B
:108670004FF6FF7C3978914201D103B0F0BD988864
:1086800058B319785C788DF804108DF80540BDF862
:108690000450654521D006EBC20595F801E0A645DA
:1086A0001BD116F832408C4217D1A978A9B9A988F4
:1086B000091A89B2C72910D899790A48012262F3A8
:1086C00007119971AB7962F30713AB71FFF79FFD47
:1086D00003B0BDE8F040FFF79DBF013202F0070292
:1086E000C8E700BFC63000200F3100200E31002047
:1086F000CE3000202DE9F04FA74E91B0044600681F
:108700000A90B088358821786278A778B4F8049008
:10871000ADF80C500AAB96F800E096F801C0B046F0
:10872000002800F04181ADB24FF6FF7A554500F0C8
:108730003B81B5780195002D00F03681A9EB000052
:1087400096F806B080B2C7280BF0F00500F2D28090
:10875000002D40F081808DF810E08DF811C0BDF83B
:10876000100050453D4619D08DF828108DF829206D
:108770003088BDF828C0844510D17FB9012363F348
:10878000071B86F806B0FFF75FFF3046FFF73FFD97
:10879000B379A371284611B0BDE8F08FB9F1000F8D
:1087A00009D1002FF6D098F8063043F0010388F87D
:1087B00006300025EEE78DF824108DF82520BDF851
:1087C00024604FF6FF708642EBD0002FEBD1734848
:1087D000734E007896F800E0DFF8C8C1704514D1F8
:1087E0008DF829208DF82A70ADF82C908DF828107E
:1087F00093E8030000F032FAC0F30332C3B2032A55
:108800001DD8DFE802F0131321210CEBC00696F807
:108810000180904506D11CF83080884502D1B67899
:10882000002EB7D1013000F00700D7E710F4706FC9
:1088300001D0002BAED02033DBB2072BAAD92046C3
:10884000FFF7E5FC019DA5E710F4706FF3D0A27966
:1088500012F0F00FEFD19DE78DF814E08DF815C000
:10886000BDF81400504515D08DF828108DF829203A
:108870003088BDF8285085420CD15FB984F806B025
:108880002046FFF7C4FC2368336063687360FFF71A
:10889000DBFED7E78DF82A70ADF82C908DF8281004
:1088A0008DF8292093E80300FFF768FE002800F008
:1088B0000381002F00F0008198F806301F2B0DD99E
:1088C000B8F80020ADF8302000228DF83220ADF845
:1088D00034908DF836300CA8FFF799FC2368C8F85F
:1088E00000306368C8F80430FFF7B6FEFFF7ACFE4F
:1088F00001254FE79DB98DF829208DF82A70ADF834
:108900002C908DF8281093E80300FFF777FE30468F
:10891000FFF77DFC35607560FFF796FE3AE78DF84E
:1089200018E08DF819C0BDF81800504511D08DF829
:1089300028108DF829203088BDF82850854208D1AC
:108940003FB984F806B02046FFF761FC37607760D6
:1089500078E78DF82A70ADF82C908DF828108DF8F6
:10896000292093E80300FFF709FE002800F0A48007
:10897000002F00F0A18098F806301F2BAED9B8F870
:108980000020ADF8382000228DF83A20ADF83C9058
:108990008DF83E300EA89FE7C63000200F31002032
:1089A0000E310020CE300020002875D08DF81CE05C
:1089B0008DF81DC0BDF81C504FF6FF76B5426BD048
:1089C00098F80250002D67D1A9EB000080B2C728AB
:1089D00051D83D46002F6FD08DF820E08DF821C092
:1089E000BDF82000B0422DD08DF828108DF8292038
:1089F000B8F80000BDF82860864223D198F8063008
:108A0000DA0718D413F0F00F15D003F0F002F02AB3
:108A10001CBFC3F303120132A3711CBF62F307131F
:108A2000A3712046FFF7F3FB2368C8F800306368A2
:108A3000C8F8043070E72368C8F800306368C8F8E5
:108A40000430A7E68DF82A70ADF82C908DF8281028
:108A50008DF8292093E80300FFF790FD00287FF4AC
:108A60003DAF98F80630204643F0010388F8063001
:108A7000FFF7CDFB8EE68DF82A70ADF82C908DF8BF
:108A800028108DF8292093E80300FFF7B7FDC8F8F8
:108A90000050C8F804503FE777B18DF82A70ADF860
:108AA0002C908DF828108DF8292093E80300FFF70B
:108AB00065FD00287FF412AF2046FFF7A8FB17E7FB
:108AC000F0B587B06C4684E803002046FFF712FE3D
:108AD0002D4E2E4D074688B1BDF80430BDF800205C
:108AE000ADF8082043B192B24FF6FF739A4203D01B
:108AF00094E80300FFF788FD254C40E094E803006C
:108B000004AB83E80300BDF80420BDF81010ADF8F5
:108B10000C10002AF0D089B24FF6FF729142EBD0D0
:108B200034782978621C02F007028A420BD0184F71
:108B3000327003CB07EBC40C47F83400CCF80410B8
:108B4000FFF768FDD8E7FFF75BFB124B37702F701C
:108B50001F605F6007B0F0BD04EBC000FFF7CAFD07
:108B60000028F7D02B7804EBC30254F83300516887
:108B7000FFF74AFD2B78013303F007032B702878A9
:108B800033788342E8D1E5E70E3100200F31002031
:108B9000CE300020C6300020014B186000F04CBAE7
:108BA0007431002070470000024A136818431060B7
:108BB00000F041BA10310020024A136818401060DA
:108BC00000F039BA10310020024A13685840106092
:108BD00000F031BA103100200020FFF7DDBF012383
:108BE00003FA00F0FFF7D8BF012303FA00F0024BAD
:108BF0001B681843FFF7D0BF74310020012303FA2C
:108C000000F0034B1B6823EA0000FFF7C5BF00BF5D
:108C100074310020012303FA00F0024B1B68584016
:108C2000FFF7BABF74310020024B1B681843FFF7EF
:108C3000B3BF00BF74310020024B1B681840FFF720
:108C4000ABBF00BF74310020024B1B685840FFF7D8
:108C5000A3BF00BF74310020704700002DE9FF4121
:108C60006B4683E80300BDF80430002B40D09DF82C
:108C700000609DF801508DF808608DF80950BDF82E
:108C800008204FF6FF739A4232D09DF8023053B35A
:108C90001A4B1B4A1B6812688DF80C608DF80D503A
:108CA00043EA02081F2728FA07F3DB07FCB212D4B5
:108CB00017F1FF37F7D20024124B03EB05139C5535
:108CC0008DF800608DF801500099204604B0BDE891
:108CD000F04100F0B6B90399204600F0B2F980B235
:108CE0000128E5D0E8E7074B03EB05139C5DE7E7B8
:108CF0004FF0000004B0BDE8F08100BF74310020E7
:108D000010310020143100202DE9F0474B4B1B7827
:108D10008BB14B4B1B7873B1C2081A2A09D8494B47
:108D20001B68134400F00702012090405A7810435A
:108D30005870BDE8F087444DDFF8088195F9007060
:108D4000DFF80CC177B3414ED8F8009096F90030A7
:108D50009CF90020B6461C464FF0FF31062609EB71
:108D6000040A9AF802A05045E3D0B1F1FF3F03D1C5
:108D7000BAF1000F08BF214604F1010A9AFBF6F48C
:108D800006FB14A464B29442E9D1A3420AD14A1C5E
:108D90001AD10133013F93FBF6F206FB12368EF82F
:108DA00000602F709CF90030D8F800201A4406218A
:108DB0000133907093FBF1F201FB12338CF8003019
:108DC0002B7801332B70B4E74F1C97FBF6F206FBB0
:108DD000127252B24FF0010E4FF000090626D8F879
:108DE000007007EB020A9AF802A0BAF1000F1FD038
:108DF0000F4487F802A0D8F80070174487F8029053
:108E00004F1C97FBF6F106FB117149B2571C97FBFB
:108E1000F6F206FB127252B29442E0D1A3EB0E03BB
:108E2000063393FBF6F206FB12338CF80030B9E7F9
:108E30000EF1010E5FFA8EFEE8E700BF1C2900204C
:108E400072250020742500209431002095310020E7
:108E5000963100202DE9F0432D4B1B7893B12D4B1B
:108E60001B787BB1C2081A2A0AD82B4B1B68134403
:108E700000F0070001228240587820EA0200587072
:108E8000BDE8F083254E96F90030002BF8D0244D34
:108E9000214F244C2978D7F8008094F900E04FF056
:108EA000060C08EB010292F80290814527D1013BA4
:108EB00000205BB2907033700BB92B70237094F963
:108EC000003006225E1D96FBF2F002FB106081422C
:108ED000D6D13E6895F90050053393FBF2F102FBC1
:108EE00011314BB2053191FBF2F002FB101131440C
:108EF000897809B12370C3E7AB42EDD1FAE70131BC
:108F000091FBFCF20CFB12127245D1B2C9D1B7E74A
:108F10001C29002072250020742500209431002097
:108F20009531002096310020044801230021026879
:108F3000D15401331C2BFAD1704700BF7425002097
:108F4000014B1878704700BF98310020024A13780F
:108F500018431070704700BF98310020024A137800
:108F600023EA00001070704798310020014B187000
:108F7000704700BF98310020014B00221A707047E3
:108F800098310020024A137818431070704700BFD0
:108F900099310020024A137823EA000010707047CC
:108FA00099310020014B00221A707047993100203E
:108FB000014B1870704700BF97310020014B002211
:108FC0001A70704797310020064B1B6800205A1C0E
:108FD0001C3312F8011B09B10130C0B29A42F8D11A
:108FE000704700BF7425002038B50E4C0E4922682A
:108FF0000978117021680D480A7800780C4D0243F9
:109000000A7095F9002042B1236819780A431A7052
:10901000FFF7DAFF08B100232B702068BDE8384065
:10902000FEF7B6BE7425002098310020993100204B
:1090300097310020704770477047FEF753BF0020FC
:10904000704707B5ADF804100199FDF769FCA0F170
:10905000C0021F2A034604D8FDF788FC03B05DF860
:1090600004FBBE2809D8A82825D2A42815D804288E
:1090700011D2012809D0002307E0E72807D8E0280B
:1090800009D2BF28F7D14FF460431846E6E7F0282D
:10909000F1D340F4A0439BB2F7E7A52808D044F2EF
:1090A000820244F28300A62B0CBF13460346ECE772
:1090B00044F28103E9E730D0A92831D0AA2832D080
:1090C000AB2833D0AC2834D0AD2835D0AE2836D03C
:1090D000AF2837D0B12838D0B02839D0B2283AD00C
:1090E000B3283BD0B4283CD0B5283DD0B6283ED0DC
:1090F000B7283FD0B82840D0B92841D0BA2842D0AC
:10910000BB2843D0BC2844D0BD2845D0BE2844F25B
:10911000704318BF4FF48843B7E744F2E243B4E723
:1091200044F2E943B1E744F2EA43AEE744F2B5431F
:10913000ABE744F2B643A8E744F2B343A5E744F2F1
:10914000B443A2E744F2B7439FE744F2CC439CE721
:1091500044F2CD4399E744F2835396E744F28A53AD
:1091600093E744F2925390E744F294538DE744F22C
:1091700021638AE744F2236387E744F2246384E7A8
:1091800044F2256381E744F226637EE744F22763D5
:109190007BE744F22A6378E744F26F4375E7000007
:1091A000194B1B78D90709D5184B187800EB8000AC
:1091B00080087F2823D820B3C0B270479A0705D50E
:1091C000124B187800EB80004008F2E75B0704D5EB
:1091D0000E4B187800EB8000EBE70D4B1B7863B16A
:1091E0000C4A0A4912780878934200EB80003EBF8F
:1091F000584390FBF2F080B2DBE70520DCE77F20EC
:1092000070470120704700BFA33100207A2500205D
:10921000A43100207B250020154B1B78D90705D5EC
:10922000144B1878800800B3C0B270479A0703D572
:10923000104B18784008F6E75B0705D50D4B1878FA
:109240007F28F0D97F2070470B4B1B785BB10B4A0E
:10925000084912780878934236BF10FB03F080B2B9
:1092600090FBF2F0ECE70120DEE70120704700BF41
:10927000A33100207C250020A43100207D25002082
:10928000F02808B505D1FFF78BFF40422F4B9870AF
:1092900008BDF12802D1FFF783FFF7E7F22805D1D7
:1092A000FFF77EFF4042294B5870F1E7F32802D1C7
:1092B000FFF776FFF7E7F92804D1FFF7ADFF234B5F
:1092C000D870E5E7FA2803D1FFF7A6FF4042F6E79A
:1092D000FB2805D1FFF7A0FF40421C4B1871D7E7D0
:1092E000FC2802D1FFF798FFF7E7F42804D1174ACA
:1092F000137843F0010313E0F52804D1134A1378DF
:1093000043F002030CE0F62804D1104A137843F02E
:10931000040305E0F72805D10C4A137843F008034D
:109320001370B5E7F82804D1084A137843F0100306
:10933000F6E7FD2801D1064ADAE7FE2801D1044A02
:10934000DDE7FF28A4D1024AE0E700BF9E310020FC
:10935000A3310020F028404B14D193F90220002AB9
:1093600001DA00229A7093F9012052B993F9022090
:109370003AB993F9032022B993F904300BB9374A6B
:1093800013707047F12804D193F90220002AE8DC19
:10939000E9E7F22893F9012004D1002AE3DA002258
:1093A0005A70E0E7F32802D1002AF8DCDBE7F9285D
:1093B00006D193F90320002AD5DD0022DA70D2E726
:1093C000FA2804D193F90320002ACCDAF5E7FB2828
:1093D00006D193F90420002AC5DA00221A71C2E7E7
:1093E000FC2804D193F90420002AF6DCBBE7F4281A
:1093F00004D11A7822F001021A70B4E7F52803D1DB
:109400001A7822F00202F7E7F62803D11A7822F040
:109410000402F1E7F72803D11A7822F00802EBE7FB
:10942000F82803D11A7822F01002E5E7FD2805D1CB
:109430000B490A7822F001020A7094E7FE2804D151
:1094400007490A7822F00202F6E7FF288BD1044987
:109450000A7822F00402EFE79E310020A4310020B8
:10946000A331002008B50448FEF79AFCFDF750F937
:10947000024B188008BD00BF9E3100209C310020A7
:10948000F8B5414B1888FDF74DF940490A78A2B16B
:109490003F4B1B7898420FDB3E4C94F9013094F916
:1094A000025094F9037094F9046063B9002D61D1FE
:1094B000002F5FD1002E5DD1F8BD374B1B7803EB39
:1094C00083035B00E6E7FF2A01D001320A70002B1C
:1094D00002DDFFF765FE607094F90130002B03DABE
:1094E000FFF75EFE40426070002D02DDFFF758FE80
:1094F000A07094F90230002B03DAFFF751FE4042CE
:10950000A07094F90100B8B194F90250A5B109F026
:10951000CDFA1BA3D3E9002309F032FB09F042FD89
:109520006070284609F0C2FA15A3D3E9002309F0B8
:1095300027FB09F037FDA070002F02DDFFF76CFE5E
:10954000E07094F90330002B03DAFFF765FE404228
:10955000E070002E02DDFFF75FFE207194F9043009
:10956000002B03DAFFF758FE40422071BDE8F840B7
:10957000FFF778BFFF2AA8D1B6E700BFAFF300809E
:10958000666666666666E63F9C310020A431002070
:10959000792500209E31002078250020044A0023F0
:1095A00013601371034A1370034A1370704700BFAE
:1095B0009E310020A4310020A33100200649074A33
:1095C000074B9B1A03DD043BC858D050FBDC00F06E
:1095D0004DF8FCF735FE00002C3303000025002079
:1095E000E8280020FEE7FEE7FEE7FEE7FEE7FEE7ED
:1095F000FEE7FEE7FEE7FEE70C4B1B78062B10D1DB
:109600000B4B1B681A070CD10A4B186800F0F003CB
:10961000302B08D000F0E000A0F140035842584140
:109620007047002070470120704700BFE00F00F036
:10963000E40F00F0E80F00F0094B1B78062B0CD16B
:10964000084B1B681A0708D1074B186800F0F00098
:10965000A0F130035842584170470020704700BFC6
:10966000E00F00F0E40F00F0E80F00F008B5FFF79E
:10967000C3FF28B1734B744A1B68C3F30423136000
:10968000FFF7DAFF10B1714B714A1A60FFF7B4FFB0
:1096900028B1704B704A1B68C3F342331360FFF765
:1096A000CBFF20B16D4AD36823F08073D360FFF7FE
:1096B000A3FF40B14FF080430022C3F80C21C3F850
:1096C0001021C3F83825FFF7B7FF10B1644B032210
:1096D0001A60FFF7B1FF40B1624B05221A60012208
:1096E0009A6700229A603F225A605F4B1B78062BD4
:1096F00050D15E4B1B6819074CD15D4B1B6803F0C2
:10970000F003502B46D14FF080525A4BD2F804143C
:10971000C3F82015D2F80814C3F82415D2F80C1495
:10972000C3F82815D2F81014C3F82C15D2F8141465
:10973000C3F83015D2F81814C3F83415D2F81C1435
:10974000C3F84015D2F82014C3F84415D2F82414F5
:10975000C3F84815D2F82814C3F84C15D2F82C14C5
:10976000C3F85015D2F83014C3F85415D2F8341495
:10977000C3F86015D2F83814C3F86415D2F83C1455
:10978000C3F86815D2F84014C3F86C15D2F8442415
:10979000C3F87025FFF730FF28B1374B374A1B68F5
:1097A00003F04F031360FFF727FF48B14FF08043EA
:1097B000D3F80024D20744BF6FF00102C3F800249D
:1097C0002F4B1B68062B08D12E4B1B68062B01BFA5
:1097D0002D4A136843F4806313604FF01023D3F8CD
:1097E0000C32DB0729D5294B0122C3F80425D3F815
:1097F0000024002AFBD04FF01022D2F80C3223F0C4
:109800000103C2F80C32214B1A46D3F80014002988
:10981000FBD00021C3F80415D2F80034002BFBD094
:10982000BFF34F8F1A491B4BCA6802F4E06213431F
:10983000CB60BFF34F8F00BFFDE7174B174A1A608D
:1098400008BD00BF240300104035014074C007402C
:109850000DF0ADBA440200103C050040F0ED00E010
:10986000A005004010560040E00F00F0E40F00F0AB
:10987000E80F00F000C0004058020010E40E004065
:1098800030010010340100103C17004000E001409E
:1098900000ED00E00400FA05802500200090D003D0
:1098A0001FB50021039001AA44F20100CDE9011186
:1098B00000F004F805B05DF804FB000072B6094B37
:1098C0001B68DB0700D500BEBFF34F8F0649074B6F
:1098D000CA6802F4E0621343CB60BFF34F8F00BF4E
:1098E000FDE700BFF0ED00E000ED00E00400FA0548
:1098F00012F0030310B511D1094C22604C1CE40096
:10990000A4B22244074C2260074A1370074A13701E
:10991000074A1080074A1846118010BD0720FCE74F
:10992000AC310020A8310020A5310020B431002046
:10993000B0310020B23100202DE9F3472B4D2B88A8
:109940008B4206460C4617464BD302A84FF0000840
:1099500000F8018D00F088F8254B264A1878117818
:10996000CBB2254909888B4238BF0133C0B238BF1A
:109970005FFA83F840452ED092F800801378DBB26E
:10998000994286BF0133DBB2002313709DF80700B4
:1099900000F08EF84FF6FF73984524D0DFF860A0F2
:1099A000DAF800304FEAC80903EB090243F83870CF
:1099B000A6B19CB1114B28881B68224608FB0030D9
:1099C000314608F0FCFEDAF800304B4400209C8061
:1099D00002B0BDE8F0874FF6FF78D7E7002090800F
:1099E000F6E70920F4E70420F2E700BFB0310020D9
:1099F000B4310020A5310020B2310020A831002070
:109A0000AC310020F8B5124C124D264622782B7846
:109A10009A4200D1F8BD23780F48104A078812688F
:109A20000F48DBB219B202EBC10C006852F83120CA
:109A3000BCF8041003FB070090470A4A23781288F9
:109A4000DBB29A4286BF0133DBB200233370DDE71D
:109A5000B4310020A5310020B0310020AC3100200D
:109A6000A8310020B231002070B5EFF3108672B635
:109A70000C4A946801239CB993600B4B0B4DD3F8AF
:109A8000801029401160C3F88050D3F884105160D1
:109A90004FF0FF32C3F88420047006B962B670BD7F
:109AA0000370FAE78C3F002000E100E0FC06FFBDF8
:109AB00010B5084B9A685AB150B9EFF3108172B6DD
:109AC000054A1C6814605C685460986001B962B60D
:109AD00010BD00BF8C3F002000E100E070B5064ED5
:109AE0000546002456F824300BB128469847013427
:109AF000042CF7D170BD00BFC4310020033080B208
:109B000040F2FD33984230B51FD8124B1A783AB95B
:109B10001C895D892C440444A4B2B4F5806F0AD337
:109B20001A7DA2B99A8BDC8B2244024492B2B2F520
:109B3000806F0CD201220A801446142202FB0433E7
:109B40005A8910445881002030BD0920FCE70720C5
:109B5000FAE700BFF83100200B4A0C4B5188142063
:109B600000FB0131CB6833B9042049681070012231
:109B7000074801F01AB805230649137002238B80A9
:109B8000012200230968F3E7DC310020F8310020CE
:109B900090280020C032002007B50023054900931B
:109BA000054A09680548082300F0D1FF03B05DF8B5
:109BB00004FB00BFC0320020443103009028002085
:109BC00007B50023009301460823034A034800F029
:109BD000BEFF03B05DF804FB3C3103009028002079
:109BE00013B500230C46009301460423074A084896
:109BF00000F0ADFF38B9074B142202FB04340123F7
:109C0000237402B010BD0E20FBE700BF3831030003
:109C100090280020F831002037B50A480A4B4268E6
:109C20009C88196853880325033305709BB2002074
:109C300000909B0001EB8401044800F088FF03B012
:109C400030BD00BFDC310020C03200209028002051
:109C500010B50146044800F056FE1C2204460021BF
:109C600008F0B8FD204610BDAC3200204388033315
:109C700000EB8303994209D382884FF6FF739A421F
:109C800006D00088B0FA80F0400970470220704783
:109C9000012070472DE9F8430223DFF860800B8034
:109CA0000D46174600F5805600F108044FF00109F3
:109CB000B4420FD2236801330CD031462046FFF75F
:109CC000D5FF48B10FB187F8009002280BD14FF4AF
:109CD00080632B80BDE8F883A368D8F80020934206
:109CE00001D9C8F800302B886288033313442B80D5
:109CF0006388033304EB8304DAE700BFF03100200C
:109D000070B5144A142303FB00200B6844680D4609
:109D100004F580569BB15C88033403EB8404B442A1
:109D20000BD22368013308D031462046FFF79EFF4F
:109D3000012809D005D30228F1D1002003E008341E
:109D4000EDE72C60012070BD6388033304EB8304CE
:109D5000E5E700BFF831002073B5436805460C46BF
:109D60006BB3254AD1688B4229D31269934226D816
:109D700013F0030223D121490089098988421ED1A9
:109D80002868996888421AD11D494868834203D9D6
:109D900000F5805083420ED38A6993420DD902F5B3
:109DA0008052934209D2012323800020B0FA80F030
:109DB000400902B070BD1346F6E70A20F6E700231B
:109DC00023801E462388012B01D90020F1E701964C
:109DD00001A92088FFF794FF18B923880133238055
:109DE000F0E7019B2A6899689142F1D16B60034BBF
:109DF0001B892B81DDE700BF90280020DC3100208B
:109E0000F83100202DE9F8431C461F4B1B7806460D
:109E10000F461546002B32D0002A32D0002C30D00D
:109E2000DFF86C804FF01409A388012B01D90A20B8
:109E30001BE009FB03F318F80330C3B1A388013317
:109E4000A380F1E723681EB19988328891420ED130
:109E50001FB119883A88914209D19B682B60236809
:109E60006B600A4B1B892B810020BDE8F8832146DB
:109E7000A088FFF745FF0028E4D12060DEE702203C
:109E8000F3E70520F1E700BFD4310020DC310020EA
:109E9000F831002008B5074B191D5888FFF730FF2F
:109EA00018B1BDE80840FFF7B7BEBDE80840FFF7AE
:109EB00053BE00BFDC3100202DE9F04FA04FDFF88A
:109EC000A49289B00646B8463B6823B949469D48E6
:109ED00000F053FD3860D8F8005029784B1E052B50
:109EE00000F21381DFE813F0060076007600070128
:109EF00007015D0126B1944B00225A60012424E041
:109F00002B79032B1DD8DFE803F01502424D8F4952
:109F10000B78022B084631D00B7D022B4FF001034A
:109F20002ED114225343C2180020C8545068FFF7A2
:109F300047FE03E001232B71FFF72EFE002800F0FF
:109F4000D480814B00225A600E241422002103A8E1
:109F500008F040FC41F61D539C4208BF0024D8F88D
:109F6000003004941A78023A042A00F2D381DFE820
:109F700012F0B401C001E301EB01F2010023D0E7CC
:109F8000714A13700023536041F61D54DDE7704998
:109F90007048002302222B718A800122096800F098
:109FA00004FECBE76A4C00262E712068674DFFF750
:109FB00007FE694BD4F800C05A8814235343EA18AB
:109FC000EE5451682160A188C2F804C011810222B8
:109FD000A280B3E7B5F814A0AA7DDFF870B114230E
:109FE000AEB1022A06D903FB0AB3EA881989033203
:109FF0000A441A81142303FB0ABAEB88BAF80A2030
:10A00000C3F57F43FD331344AAF80A3076E703FB18
:10A010000AB318895C6804EB8004062A05D8DFE8D7
:10A0200002F0274D35431D5967000F24AB7D022BED
:10A0300007D9142202FB0AB2EB88118903330B44BF
:10A040001381142303FB0ABAEB88BAF80A20C3F57C
:10A050007F43FD331344AAF80A3076E73F4840496E
:10A0600000234360AB690360FFF776FE00285AD0F7
:10A070000223AB75002300930423EA1821463548D8
:10A0800000F065FD002830D00E24CFE72B69002BAF
:10A090000CBF01230323AB750023009305F10C02D1
:10A0A000042304F10801EAE70123AB750022EB88E1
:10A0B00000929B002A6904F10C01E0E7032914BF18
:10A0C00006230523AB7500230093042305F1080242
:10A0D000E118D4E70623AB75214B19881F4B58684C
:10A0E000FFF77EFD04460028A0D109B0BDE8F08F3F
:10A0F00041F61D549AE7002E7FF400AF2B79012B17
:10A1000032D004D3022B3FF43FAF0F241DE70223CC
:10A110002B71CDE904660DF10A01EB68039303A8E6
:10A12000FFF71AFE08B90A240FE70498BDF80A10D1
:10A130008388EB8003882B81FFF752FD044626E0DD
:10A14000F4310020AC320020D4310020F83100205E
:10A15000C032002090280020DC310020B8310020DF
:10A16000CC320020EC310020DFF808A203AA5346CD
:10A170003146A81DFFF746FE044660B9BAF8041040
:10A180000498FFF72DFD04460A2C3FF4FDAE002C89
:10A190007FF4DBAEA9E708223146504608F01AFBEF
:10A1A000F2E7002E7FF4AAAE6D4B1A7BB2B11E739C
:10A1B0001A78013A062AA8D801A151F822F000BF66
:10A1C00067A202008DA20200ABA20200B1A20200AF
:10A1D0000BA10200B7A20200CDA202001A78072A42
:10A1E000E6D801A151F822F009A20200B1A10200B3
:10A1F000B1A102002FA2020043A2020063A202004A
:10A2000063A202002BA202001A89564901321A8168
:10A2100000225A801A730A78B2FA82F252099A72AC
:10A220000A7DB2FA82F25209DA72012207E04E493F
:10A2300058688A884088033202448A8002221A7051
:10A24000B6E7484C5A884849142505FB024208687D
:10A25000546850608888108102228A800C6006222F
:10A26000EDE70722EBE79A7A32B9DA7A8AB9002267
:10A270001A705A805A6087E63A4900229A72CA6870
:10A28000002AF2D1097C0029EFD05A80FFF702FEA4
:10A2900054E70022DA72334A116A0029E7D192F8B2
:10A2A0002420002AE3D00122EFE7FFF7B5FC45E7C1
:10A2B000FFF752FC42E706221A702A4A5B881421F3
:10A2C00001FB03235868FFF77BFC37E707221A706E
:10A2D00000225A60FFF760FC30E701228DF80C2065
:10A2E0001A89ADF818209A88ADF81A20DB68059312
:10A2F00010E002228DF80C201A89ADF818209A88F7
:10A30000ADF81A20DA6805929B7D9A1F534253419B
:10A310008DF81C3003A8FFF7E1FB002649461348DF
:10A32000C8F8006000F054FB0121114800F0F8FB70
:10A3300000287FF4C9ADD8E603228DF80C20DA8816
:10A34000ADF818201A89CFE704228DF80C20DB889D
:10A35000ADF81830DEE705238DF80C30DAE700BFE2
:10A36000DC310020F8310020C0320020AC32002067
:10A37000BC320020D03200204068FFF79DBD0000B5
:10A3800008B50121044800F0B5FB18B9BDE8084044
:10A39000FFF792BD08BD00BFBC3200202DE9F3419C
:10A3A0009846344B1B7806460D46002B59D00029A1
:10A3B00059D009884FF6FF73994256D06B88002B0D
:10A3C00053D06B689B0752D14AB92F890DF1020116
:10A3D0003846FFF793FB30B102B0BDE8F081138837
:10A3E0005788ADF8023001A8FFF732FC044658B98F
:10A3F000BDF80230204A142101FB03235889033899
:10A40000C01B58810820E7E780F80080002383758F
:10A41000BDF8023083826B6803610121174800F0A8
:10A4200074FBE0602B8823816B88A380B8F1030F55
:10A4300004BF0423A375E78004BF3368A36100252C
:10A44000658101A90E4800F088FA36B17560E368AD
:10A4500033600C4BB5721B893381FFF791FF0020ED
:10A46000BAE70220B8E70520B6E70420B4E70320E6
:10A47000B2E700BFD4310020F8310020F0310020D5
:10A48000AC320020DC31002008B5084B1A68042AE1
:10A4900009D01968064A42F821000121184600F047
:10A4A00034FB002008BD0C20FCE700BFC8320020B0
:10A4B000C43100202DE9F04F89B01422002103A8F7
:10A4C00008F088F9724A1378904603F0FF0B3BB10D
:10A4D00003A8FFF703FB0027384609B0BDE8F08F5B
:10A4E000101D00F028FB05460028F4D140F6F87353
:10A4F0004FF080521B685C1C08BF664B664C08BF5F
:10A500001B6811695269581C08BF02FB01F32361E3
:10A510000022A3F540536149E360204600F00EFBA2
:10A52000009407460028D7D11C238C225C495D4843
:10A530005D4E00F0B3F9BA464FF003093C46009B6C
:10A54000DA680AEB020003465AF8022068B357495A
:10A550008A422AD1426856498A4214D001318A423D
:10A5600023D1544BBBF1000F4ED100225249186049
:10A570000193FFF78FFB019B9B88022B14BF0823DD
:10A5800004231D432FE014216143731800227254E9
:10A5900001F110020831586032443144FFF77AFB70
:10A5A00045F002050134A4B21DE000F580511A689F
:10A5B000013261D104339942F9D13E4B1A682AB96C
:10A5C000022218609A804FF0010B0AE014236343C3
:10A5D0000221F218F154394B50605C800134118132
:10A5E000A4B245F001050AF5805ABAF5405FA6D13C
:10A5F000B9F1010F98BF0025EDB2022D02D0062D52
:10A6000010D0CDB90B2767E714226243B1184FF081
:10A61000020C06F802C001341A684A60A1F808C0AA
:10A62000A4B2A2E7012388F8003003A80023C8F8E9
:10A630000430FFF753FA4FE702A8FFF709FBC8B150
:10A640000123013D03700A2D09D8DFE805F0060853
:10A650000608070807080F110F000023037102A95D
:10A66000104800F07AF9FFF78BFE35E70323F5E792
:10A670000223F3E708272FE714236343F21809F1B5
:10A68000FF39506003221FFA89F9F2548AE700BFAC
:10A69000D4310020141000109028002058310300FD
:10A6A00020320020AC320020F8310020DEC0ADDEC8
:10A6B000FE011EF1C0320020C4320020DC31002037
:10A6C00073B50D460446C8B1C1B10DF10601FFF7DF
:10A6D00043FBA8B10B4BBDF806006668142202FBD1
:10A6E000003001210C3000F010FA2E6063680C334A
:10A6F0006B600123A372002002B070BD0520FBE750
:10A700000A20F9E7F831002013B50446A8B10DF18D
:10A710000601FFF721FB90B10B4ABDF8063014216A
:10A7200001FB0323DA6862B1A27A52B1DA68002031
:10A73000013ADA60A07202B010BD0520FBE70A20E2
:10A74000F9E70620F7E700BFF831002002230022D6
:10A75000FFF724BE18B103230022FFF71FBE052018
:10A760007047000037B50F4B1B7805469BB1A0B171
:10A7700001A8FFF76DFA90B104230024037004715F
:10A780002B68C36001A9084800F0E7F8FFF7F8FD5F
:10A79000204603B030BD0220FBE70520F9E7082082
:10A7A000F7E700BFD4310020AC32002013B5104BC6
:10A7B0001B780446ABB14FF6FF73984213D001A843
:10A7C000FFF746FA88B10523037001230371C480A3
:10A7D00001A9084800F0C1F8FFF7D2FD002002B03F
:10A7E00010BD0220FBE70420F9E70820F7E700BFCF
:10A7F000D4310020AC32002007B50E4B1B78A3B13A
:10A8000001A8FFF725FA90B10623037001A90A48B1
:10A8100000F0A3F8094B1A780AB101221A73FFF766
:10A82000AFFD002003B05DF804FB0220FAE708202A
:10A83000F8E700BFD4310020AC320020DC3100202A
:10A8400007B5ADF8060002A820F8041D01460DF179
:10A850000600FFF7D7FA03B05DF804FB13B502ACAE
:10A86000134624F8020D0A4600202146FFF7CAFAD3
:10A8700002B010BD13B502AC134624F8020D0A460F
:10A8800020460021FFF7BEFA02B010BD20B119B179
:10A8900003680B60002070470520704710B561B158
:10A8A000B2FBF3F403FB1424A4B244B9C0E90014CE
:10A8B00084608281C381204610BD0E20FCE7092000
:10A8C000FAE782B050E8022FC188B2EB324F4FF066
:10A8D000000317BF92B241EA014142EA014104E09C
:10A8E0004268B2EB324F08BF012340E80212002A4F
:10A8F000E8D18DF807309DF80730002B0CBF1120F0
:10A90000002002B0704737B550E8013F9DB2C489BE
:10A9100025448489A54228BF2D1B0489A54202BF76
:10A92000BFF32F8F002207E0C5EA030540E801547A
:10A93000002CE9D14FF001028DF803200193019B17
:10A940009DF803200B6002F0FF0322B10B88006822
:10A95000184403B030BD1846FBE70A884B889A427A
:10A9600009D150E8012FC2EA024240E80123002B3E
:10A97000F7D1012070470020704737B550E8023FFB
:10A980001FFAA3F5C488A54202BFBFF32F8F002290
:10A990000DE0C48925448489A54228BF2D1BC3EA44
:10A9A000054540E80254002CE8D14FF001028DF833
:10A9B00003200193019B9DF803200B6002F0FF032D
:10A9C00022B14B880068184403B030BD1846FBE73D
:10A9D0000A884B889A4209D150E8022FC2EA2242E3
:10A9E00040E80223002BF7D1012070470020704778
:10A9F00001F01F024B090121914000EB830000F0A0
:10AA000063B84B0910B501F01F040121A14000EB10
:10AA1000830000F04EF8E04000F0010010BD01F0AE
:10AA20001F0301229A404B0900EB8300D14300F041
:10AA300056B84B0901F01F0150F82300C84000F040
:10AA4000010070472DE9F0474E1E760980460F46FB
:10AA50000136002558F8254008EB850AE44394FAAE
:10AA6000A4F4B4FA84F44FEA4519202C06D1013538
:10AA7000AE42EFD83C462046BDE8F0874C44A742A2
:10AA8000F5D921464046FFF7BCFF0028F3D0DAF89D
:10AA90000040E44394FAA4F4B4FA84F4E5E750E8FF
:10AAA000002F0B4640E8003C9CF0000FF7D1104609
:10AAB000704750E8002F42EA010340E8003C9CF058
:10AAC000000FF6D11046704750E8003F43EA0102FC
:10AAD00040E8002C9CF0000FF6D11046704750E87B
:10AAE000003F03EA010240E8002C9CF0000FF6D181
:10AAF0001046704750E8002F02EB010340E8003C8D
:10AB00009CF0000FF6D11046704750E8003F03EB71
:10AB1000010240E8002C9CF0000FF6D1104670476F
:10AB200050E8003FA3EB010240E8002C9CF0000F2E
:10AB3000F6D1104670470121FFF7BBBF0B4620B18D
:10AB40001BB103601B68114618470E2070472DE9A2
:10AB5000F04108B302B3D0F800E0BEF1000F1ED000
:10AB6000FBB14768D7F80480B3FBF8F708FB173749
:10AB7000BFB942EA010C1CF0030F14D1C768B942F7
:10AB800011D34C1E05691C44AC420CD8DEF80C40B5
:10AB9000A446BDE8F04160470E20BDE8F0810820E2
:10ABA000FBE70920F9E71020F7E7F0B5D8B1D0F8B6
:10ABB00000C0BCF1000F18D0CAB14768D7F800E058
:10ABC0000EF1FF370F4214D1C768B94211D34C1EA2
:10ABD00005690EFB0244AC420BD8DCF81040A446D9
:10ABE000BDE8F04060470E20F0BD0820FCE70920DA
:10ABF000FAE71020F8E729DF704728DF704770B5C3
:10AC00000568AB6886B004460E4673B11422002175
:10AC1000684607F0DFFDA36805932379019633B1F9
:10AC2000012B0ED0AB686846984706B070BD012373
:10AC30008DF8003023690293E368039363690493FA
:10AC4000F0E702238DF80030E3681B030293F5E779
:10AC50000846704700207047024B187A003018BF32
:10AC60000120704774330020034B187A0122B0FA98
:10AC700080F05A74400970477433002008B51046BC
:10AC80001A4607F09CFD002008BD000008B51422FC
:10AC90000021044807F09EFD0348FFF712FE002044
:10ACA00008BD00BF743300206433002010B5094C88
:10ACB000094B43602046FFF73EFF40B907F08AF991
:10ACC0001C2320748C2205490548FFF7E7FD00206E
:10ACD00010BD00BF743300204C310300D832002077
:10ACE0006433002070B5244D244E2B7A2C463BB99A
:10ACF00023492448FFF741FE306008B9686070BD01
:10AD00000223237233681A7972B1012A24D01846BB
:10AD10000321FFF774FF0023237263601849194869
:10AD2000BDE87040FFF754BED3E90520121AB2F512
:10AD3000805F28BF4FF48052D3E903159208012A9F
:10AD4000014438BF01222844FFF755FF50B11128B4
:10AD5000DDD101232372D2E7D3E903021044FFF7C8
:10AD60004CFFF3E7237C002BC9D10146BDE87040BE
:10AD7000022000F009B800BF743300208C3300209B
:10AD8000883300206433002038B5831E012B45D85A
:10AD9000234C237A002B41D0022B09D1032830D039
:10ADA000204B00221B68E2601A793AB1012A22D0B6
:10ADB000637C7BBBBDE83840FFF794BFD3E9051245
:10ADC0008D1AB5F5805F94BF521902F580529A61D1
:10ADD0009142EDD102284FF0000308BF19462372BB
:10ADE000104B18BF0D211868FFF709FF0E490F48D7
:10ADF000FFF7EEFDDCE71A6901321A615B699A42DE
:10AE0000E7E7E3680133082B01D8E360D0E70023CC
:10AE1000E360DFE7BDE8384007F0CCB838BD00BFDD
:10AE2000743300208C3300208833002064330020EA
:10AE300000F0FD03012B08D1044B00225A74421E7E
:10AE4000504250411874FFF74DBF704774330020D3
:10AE500010B5064C201DFFF76EFE28B9637C1BB9A8
:10AE6000BDE81040FFF73EBF10BD00BF74330020A7
:10AE70002DE9F34180460D460F4801A916461F46AD
:10AE8000FFF741FD0446A8B11C22002107F0A2FCF7
:10AE90002D0B0123237101A9C4F80080A760E56090
:10AEA00066610548FFF759FDFFF7D2FF002002B0A9
:10AEB000BDE8F0810420FAE7643300202DE9F74370
:10AEC00081468846104801A917461E46FFF71BFD1C
:10AED0000446B0B11C22002107F07CFC00250A9B2F
:10AEE000A36001A92571C4F80090C4E903786661E4
:10AEF0000548FFF732FDFFF7ABFF284603B0BDE87A
:10AF0000F0830420FAE700BF6433002033DF70478A
:10AF100041DF7047064B10B500241C70054B1C60C8
:10AF2000BFF35F8F0449054800F068F8204610BD64
:10AF3000993300209C3300207831030090330020A7
:10AF400008B507F047F818B1BDE80840FFF7E0BFC3
:10AF500020BF40BF20BF08BD70B5224C054601216F
:10AF60002046FFF79CFDBFF35F8F264638B9042DBE
:10AF70000AD01D4B1A781AB1BFF35F8F206070BDE5
:10AF80001A4A157001221A70194C184D63682878F6
:10AF90007BB90238012813D8BFF34F8F1549164BE0
:10AFA000CA6802F4E0621343CB60BFF34F8F00BF67
:10AFB000FDE71B68984788B1204600F028F8E5E7D0
:10AFC00007F008F808B1FFF7A1FF4FF08043012216
:10AFD000C3F80025BFF34F8F20BFFDE7BFF35F8F9E
:10AFE0003060CCE79C330020993300209833002058
:10AFF0009033002000ED00E00400FA0501600B68CA
:10B0000043604A68934204BF00234360704743682B
:10B0100043B1026891680B4443605268934204BF95
:10B02000002343607047000037B50578012D04D038
:10B030003BD3022D2BD003B030BD4368244C19788C
:10B04000204600F016F990B1224B01908DF8005087
:10B050001B6868469847A168E368A2885B1A9A4211
:10B0600011D301221C491D4800F01CFFE3E7A26830
:10B07000E3689A42EFD002AB164A03F8080D126853
:10B0800018469047E7E7164B01221A70D3E7C368CA
:10B0900011491248019301228DF8005000F002FF7F
:10B0A0000C4B1B6868469847C5E70E490E4800F0F0
:10B0B000F2F828B901220B49084800F09DFEBAE7D2
:10B0C00002A8032300F8083D024B1B68EBE700BF12
:10B0D000A4330020A0330020C8330020882500209E
:10B0E000B4330020C9330020B8330020F0B51F4628
:10B0F000244B89B006461A600C46002940D08A8845
:10B100002148096800F0A6F8002837D1A289A16873
:10B110001E4800F09FF8002830D11D4D0FCD6C4621
:10B120000FC495E80F0084E80F0073690693337C21
:10B13000184A19488DF81C70003318BF01238DF888
:10B140001430737C002B14BF0E2300238DF81530B0
:10B15000F3680293B3680393336801936946736895
:10B16000009300F0C7F848B90C4B187033680133EE
:10B1700004D001220A490B4800F094FE09B0F0BD4A
:10B180000720FBE7A0330020A4330020B8330020C1
:10B190008431030029B0020084250020B43300204C
:10B1A000C83300208825002008B5054800F084F841
:10B1B00020B90448BDE8084000F07EB808BD00BFD3
:10B1C000A4330020B833002070B50A4C01460A4869
:10B1D000267800F060F805464EB1002301220749A9
:10B1E0000748237000F05EFE08B1FEF759FB2846C1
:10B1F00070BD00BFB4330020A4330020C83300204A
:10B200008825002010B501460B4800F032F80446AE
:10B2100078B90A4800F03AFE58B90949064800F0E2
:10B220003AF830B9012206490448BDE8104000F060
:10B23000E3BD204610BD00BFB833002088250020A4
:10B24000C933002008B5024800F06EFD002008BD9B
:10B250008825002049B152B1531E1A4007D182609F
:10B2600001608380C260104670470E20704709203D
:10B27000704710B58468C2688388121B934208D354
:10B28000C26813400268D154C3680133C360002010
:10B2900010BD0420FCE78268C3689A420AD0826825
:10B2A000838813400268D35C0B708368013383602A
:10B2B0000020704705207047C368836000207047F6
:10B2C0001FB503788DF800304368019383688DF8CB
:10B2D0000830C3680393054A054B684653F821308C
:10B2E00052F82110984705B05DF804FBCC330020DC
:10B2F000D0330020F0B506460F4B16F8047B43F818
:10B3000027200E4B94460A6943F827200C460FCCA1
:10B3100089B06D460FC594E80F00BCF1000F85E8B9
:10B320000F00074A049708BF00226946304600F024
:10B330003BFC09B0F0BD00BFD0330020CC3300206F
:10B34000C1B2020007B5154B1A687AB100221A6023
:10B350001B680093009B4FF080430122C3F8082331
:10B360000F4B587910B95A711B6898470D4B1A68E2
:10B3700082B100221A601B680193019B4FF0804349
:10B380000222C3F80823064B1B68012003B05DF8B6
:10B3900004EB184703B05DF804FB00BF0001004058
:10B3A000D433002004010040014B1B68184700BF44
:10B3B000DC330020014B1B68184700BFE43300203A
:10B3C000104B984273B50E4606D0A3F5043398424D
:10B3D00016D0002002B070BD0B4C02A8002300F86C
:10B3E000013DFEF741FB257915B901232660237144
:10B3F0009DF80700FEF75CFB002DEAD01120E9E77D
:10B40000024CEAE700300240DC330020E433002045
:10B41000074B984204D0A3F50433984205D07047F7
:10B42000044B00221A601A717047034BF9E700BF02
:10B4300000300240DC330020E433002000F1804083
:10B4400000F5E040002382B0036003680193019B94
:10B4500002B07047F0B5514B514C1B6885B0DBB161
:10B460004FF4827094F82E20FFF7E8FF12B194F8A1
:10B470002F30A3B1636802932389ADF80C30E368E1
:10B4800000218DF80410002B44D12374236801A8F7
:10B490009847002384F82F3094F82E3003B3414BA3
:10B4A0001B68EBB14FF48070FFF7C8FF94F82D20B4
:10B4B000638B91B28B4238D95B1A21899BB263832B
:10B4C000CB1A616801EB4301374BC3F82C16C3F864
:10B4D00030264FF48270FFF7B1FF344B01221A601F
:10B4E000334B1B685BB14FF48870FFF7A7FF002355
:10B4F00004A82374022300F80C3D236898472D4BC1
:10B500001B6813B34FF48A70FFF798FF002323746E
:10B5100005B0F0BD208B608363602081E160002A6C
:10B52000B4D1214B01221A60B0E7D2D1E3680121E6
:10B5300084F82F103BB1002161831B49C1F82C36E0
:10B54000C1F83026C5E76383C3E766694FF000475B
:10B550000125002EDCD0B6FA86F227FA02F3463235
:10B56000920026EA030602F1804303F5E0431B68DC
:10B57000002BEED01046FFF761FFA2F58C72D308C6
:10B5800082F00402C2F380028DF808308DF8045076
:10B590008DF80920236801A89847DAE70471004074
:10B5A000EC33002000710040007000400470004047
:10B5B000107100401471004038B5204A92F82C30C8
:10B5C0000546002B37D111601D490078C1F8F00500
:10B5D0006878C1F8F405E878137482F82D30536167
:10B5E00082F82F3001246FF0004382F82E0082F899
:10B5F0002C404FF48270C1F80833FFF71FFF4FF45F
:10B600008070FFF71BFF4FF48A70FFF717FFAB78CE
:10B610000C485B01DBB280F8073380230360022310
:10B62000C1F8043392F82E300BB1C1F80443C1F8CD
:10B630000045002038BD0820FCE700BFEC330020A7
:10B640000070004000E100E010B52C4B1A7C02F0C5
:10B65000FF04002A4FD10A79012A9CBF284AC2F868
:10B66000004500F10C0403EB4402127922B993F86F
:10B670002D20013283F82D2003EB4403CA791A717F
:10B680000A7A5A714B788A781B01120202F4E0623E
:10B6900003F0300313430A7802F003021343CA781D
:10B6A000120302F4805213430A79120402F4E022D6
:10B6B00013434A79120502F4801213438A79120661
:10B6C00002F0807213430E4A02EB0014000100F1F5
:10B6D0008040C4F8183500F5E040CB790C7AC0F80A
:10B6E0001445C0F810350B79012B02D80123C2F89C
:10B6F0000035002000E0112010BD00BFEC33002019
:10B700000070004070B5264A264B05461220C2F84C
:10B7100008031C7C022C03D1C2F80403112070BD65
:10B72000187C01281DD1D86818B10223C2F804334F
:10B73000F4E7DD60198393F82E3063B91A4A136871
:10B74000002BFCD04FF48070FFF778FE144BC3F849
:10B750002C56C3F83016124B0222C3F804230020E3
:10B76000DDE70220C2F8040393F82E405D60012655
:10B7700000201E74D86019813CB1598393F82D3094
:10B78000C2F82C56C2F83036C9E7C2F82C564FF42E
:10B790008070C2F83016FFF751FE20461660BEE7F3
:10B7A00000700040EC33002000710040084A137C18
:10B7B000DBB2012B09D192F82E0018B1054A002006
:10B7C00013607047044A136070470820704700BF39
:10B7D000EC3300200070004004700040F0B51B4FB7
:10B7E0008BB207EB001443EA0243C4F81C35184B34
:10B7F00040005C6900F1010C4FF0004611F5006F4C
:10B8000026FA0CF64FF0800505FA00F50BBFB4439D
:10B8100034435C615C610CBFC7F80853C7F804533C
:10B8200040244FF000455969844025FA00F040F269
:10B83000FF75AA42054A0BBF814301435961596113
:10B840000CBFC2F80843C2F80443F0BD00700040CA
:10B85000EC33002010B5124B1A7CFAB900F10C0140
:10B8600003EB4102127922B193F82D20013A83F8BB
:10B870002D2003EB410300241C715C71030103F1D3
:10B88000804303F5E04340F2FF72C3F814450549D5
:10B89000C3F81045FFF7A2FF204610BD1120FCE7BA
:10B8A000EC33002000F8FFFF38B5134B6FF0004277
:10B8B000C3F80823114A8021C2F88010104A0121E0
:10B8C0001160104942F21072086808B9013AFBD1C0
:10B8D0000D4D0024C3F800452C7405EB44031B7F79
:10B8E00013B1E0B2FFF7B6FF0134082CF5D1002305
:10B8F00085F82C3038BD00BF0070004000E100E04A
:10B900000870004014710040EC3300200A4A13789C
:10B910007BB90121117009490278C1F80C254268F0
:10B920004FF47A70D203B2FBF0F21846C1F8042546
:10B9300070470820704700BF1D3400200000014000
:10B94000034B01221A60034B02221A70704700BF9A
:10B95000000001401D34002010B5074B0748084C7B
:10B9600019780023DAB2914200D810BD03F5C072F5
:10B97000013340F82240F5E71C340020000001406C
:10B980003546526E37B5054602A8002400F8014D31
:10B99000FEF76AF80B4B1A78072A11D8511C197058
:10B9A00009492A70D1F80805012393400343C1F8DF
:10B9B00008359DF80700FEF77BF8204603B030BD40
:10B9C0000424F6E71C34002000000140002343500B
:10B9D00082B043580193019B02B070470A4610B5EC
:10B9E0004FF48E71FFF7F2FF136A9168C95C136A16
:10B9F00001331362C0F81C1510BD08B502464FF4A0
:10BA000092710068FFF7E2FF4FF484711068FFF74E
:10BA1000DDFF136801221A6008BD10B58B690A4664
:10BA20004FF4847123B9FFF7D1FFD0F8183510BD5A
:10BA3000FFF7CCFF536AD168D0F81805C854536A91
:10BA400001335362F3E700001FB501238DF8003086
:10BA5000044BCDE90110D3E900126846904705B0C8
:10BA60005DF804FB2034002030B54D4AD2F8043391
:10BA700013F4007F85B015464FD0D2F82431002B47
:10BA80004BD04FF492711046FFF7A0FF4FF40173B3
:10BA9000C2F80833434B93F8291009B901215160CA
:10BAA0003F4902228DF80020D1F88024C1F880247B
:10BAB00003929A690292DA6801920022C3E906228F
:10BAC0006846D3E9001290473548D0F81C315BB185
:10BAD00034490A6A4B699A420A464CD291F8283096
